{
  "contractName": "CryptoDonater",
  "abi": [
    {
      "inputs": [],
      "payable": false,
      "stateMutability": "nonpayable",
      "type": "constructor"
    },
    {
      "anonymous": false,
      "inputs": [
        {
          "indexed": false,
          "internalType": "string",
          "name": "name",
          "type": "string"
        },
        {
          "indexed": false,
          "internalType": "address",
          "name": "addr",
          "type": "address"
        }
      ],
      "name": "logCreateCharity",
      "type": "event"
    },
    {
      "anonymous": false,
      "inputs": [
        {
          "indexed": false,
          "internalType": "string",
          "name": "name",
          "type": "string"
        },
        {
          "indexed": false,
          "internalType": "address",
          "name": "addr",
          "type": "address"
        }
      ],
      "name": "logGetCharity",
      "type": "event"
    },
    {
      "constant": true,
      "inputs": [
        {
          "internalType": "uint256",
          "name": "",
          "type": "uint256"
        }
      ],
      "name": "catList",
      "outputs": [
        {
          "internalType": "uint256",
          "name": "catId",
          "type": "uint256"
        },
        {
          "internalType": "string",
          "name": "catName",
          "type": "string"
        },
        {
          "internalType": "uint256",
          "name": "catBalance",
          "type": "uint256"
        },
        {
          "internalType": "uint256",
          "name": "catNeed",
          "type": "uint256"
        }
      ],
      "payable": false,
      "stateMutability": "view",
      "type": "function"
    },
    {
      "constant": true,
      "inputs": [
        {
          "internalType": "address",
          "name": "",
          "type": "address"
        }
      ],
      "name": "charityList",
      "outputs": [
        {
          "internalType": "string",
          "name": "charityName",
          "type": "string"
        },
        {
          "internalType": "address",
          "name": "charityAddress",
          "type": "address"
        }
      ],
      "payable": false,
      "stateMutability": "view",
      "type": "function"
    },
    {
      "constant": true,
      "inputs": [
        {
          "internalType": "uint256",
          "name": "",
          "type": "uint256"
        }
      ],
      "name": "charityListings",
      "outputs": [
        {
          "internalType": "string",
          "name": "charityName",
          "type": "string"
        },
        {
          "internalType": "address",
          "name": "charityAddress",
          "type": "address"
        }
      ],
      "payable": false,
      "stateMutability": "view",
      "type": "function"
    },
    {
      "constant": true,
      "inputs": [
        {
          "internalType": "address",
          "name": "",
          "type": "address"
        }
      ],
      "name": "donorList",
      "outputs": [
        {
          "internalType": "address",
          "name": "donorAddress",
          "type": "address"
        },
        {
          "internalType": "uint256",
          "name": "donorValue",
          "type": "uint256"
        }
      ],
      "payable": false,
      "stateMutability": "view",
      "type": "function"
    },
    {
      "constant": false,
      "inputs": [
        {
          "internalType": "string",
          "name": "_charityName",
          "type": "string"
        },
        {
          "internalType": "address",
          "name": "_charityAddress",
          "type": "address"
        },
        {
          "internalType": "uint256",
          "name": "_charityNeed",
          "type": "uint256"
        }
      ],
      "name": "createCharity",
      "outputs": [
        {
          "internalType": "string",
          "name": "charityName",
          "type": "string"
        },
        {
          "internalType": "address",
          "name": "charityAddress",
          "type": "address"
        }
      ],
      "payable": false,
      "stateMutability": "nonpayable",
      "type": "function"
    },
    {
      "constant": false,
      "inputs": [
        {
          "internalType": "address",
          "name": "_charityAddress",
          "type": "address"
        }
      ],
      "name": "getCharity",
      "outputs": [
        {
          "internalType": "string",
          "name": "charityName",
          "type": "string"
        },
        {
          "internalType": "address",
          "name": "charityAddress",
          "type": "address"
        }
      ],
      "payable": false,
      "stateMutability": "nonpayable",
      "type": "function"
    },
    {
      "constant": false,
      "inputs": [
        {
          "internalType": "string",
          "name": "_catName",
          "type": "string"
        },
        {
          "internalType": "uint256",
          "name": "_catNeed",
          "type": "uint256"
        }
      ],
      "name": "createCategory",
      "outputs": [
        {
          "internalType": "bool",
          "name": "",
          "type": "bool"
        }
      ],
      "payable": false,
      "stateMutability": "nonpayable",
      "type": "function"
    },
    {
      "constant": false,
      "inputs": [
        {
          "internalType": "uint256",
          "name": "_catId",
          "type": "uint256"
        },
        {
          "internalType": "uint256",
          "name": "_catNeed",
          "type": "uint256"
        }
      ],
      "name": "updateCategoryNeed",
      "outputs": [
        {
          "internalType": "bool",
          "name": "",
          "type": "bool"
        }
      ],
      "payable": false,
      "stateMutability": "nonpayable",
      "type": "function"
    },
    {
      "constant": false,
      "inputs": [],
      "name": "getCatListLength",
      "outputs": [
        {
          "internalType": "uint256",
          "name": "",
          "type": "uint256"
        }
      ],
      "payable": false,
      "stateMutability": "nonpayable",
      "type": "function"
    },
    {
      "constant": false,
      "inputs": [
        {
          "internalType": "uint256",
          "name": "catId",
          "type": "uint256"
        }
      ],
      "name": "sendDonation",
      "outputs": [
        {
          "internalType": "bool",
          "name": "",
          "type": "bool"
        }
      ],
      "payable": true,
      "stateMutability": "payable",
      "type": "function"
    },
    {
      "constant": false,
      "inputs": [
        {
          "internalType": "uint256",
          "name": "catId",
          "type": "uint256"
        }
      ],
      "name": "getCatValues",
      "outputs": [
        {
          "internalType": "string",
          "name": "",
          "type": "string"
        },
        {
          "internalType": "uint256",
          "name": "",
          "type": "uint256"
        },
        {
          "internalType": "uint256",
          "name": "",
          "type": "uint256"
        }
      ],
      "payable": false,
      "stateMutability": "nonpayable",
      "type": "function"
    }
  ],
  "bytecode": "0x608060405234801561001057600080fd5b506002805490506000819055506116b08061002c6000396000f3fe60806040526004361061009c5760003560e01c80635ff469bd116100645780635ff469bd1461052e578063665588c91461058b5780638ecd9145146105d1578063a10319871461069a578063c907f562146106c5578063fcff7266146108635761009c565b80630e448f65146100a15780631bf230cd146101885780632d975f451461028557806330f1081a1461034757806338a8883714610431575b600080fd5b3480156100ad57600080fd5b506100da600480360360208110156100c457600080fd5b81019080803590602001909291905050506108fb565b60405180806020018373ffffffffffffffffffffffffffffffffffffffff1673ffffffffffffffffffffffffffffffffffffffff168152602001828103825284818151815260200191508051906020019080838360005b8381101561014c578082015181840152602081019050610131565b50505050905090810190601f1680156101795780820380516001836020036101000a031916815260200191505b50935050505060405180910390f35b34801561019457600080fd5b506101d7600480360360208110156101ab57600080fd5b81019080803573ffffffffffffffffffffffffffffffffffffffff1690602001909291905050506109e4565b60405180806020018373ffffffffffffffffffffffffffffffffffffffff1673ffffffffffffffffffffffffffffffffffffffff168152602001828103825284818151815260200191508051906020019080838360005b8381101561024957808201518184015260208101905061022e565b50505050905090810190601f1680156102765780820380516001836020036101000a031916815260200191505b50935050505060405180910390f35b34801561029157600080fd5b506102be600480360360208110156102a857600080fd5b8101908080359060200190929190505050610cc2565b6040518080602001848152602001838152602001828103825285818151815260200191508051906020019080838360005b8381101561030a5780820151818401526020810190506102ef565b50505050905090810190601f1680156103375780820380516001836020036101000a031916815260200191505b5094505050505060405180910390f35b34801561035357600080fd5b506104176004803603604081101561036a57600080fd5b810190808035906020019064010000000081111561038757600080fd5b82018360208201111561039957600080fd5b803590602001918460018302840111640100000000831117156103bb57600080fd5b91908080601f016020809104026020016040519081016040528093929190818152602001838380828437600081840152601f19601f82011690508083019250505050505050919291929080359060200190929190505050610dcc565b604051808215151515815260200191505060405180910390f35b34801561043d57600080fd5b506104806004803603602081101561045457600080fd5b81019080803573ffffffffffffffffffffffffffffffffffffffff169060200190929190505050610e78565b60405180806020018373ffffffffffffffffffffffffffffffffffffffff1673ffffffffffffffffffffffffffffffffffffffff168152602001828103825284818151815260200191508051906020019080838360005b838110156104f25780820151818401526020810190506104d7565b50505050905090810190601f16801561051f5780820380516001836020036101000a031916815260200191505b50935050505060405180910390f35b34801561053a57600080fd5b506105716004803603604081101561055157600080fd5b810190808035906020019092919080359060200190929190505050610f54565b604051808215151515815260200191505060405180910390f35b6105b7600480360360208110156105a157600080fd5b8101908080359060200190929190505050610f8c565b604051808215151515815260200191505060405180910390f35b3480156105dd57600080fd5b5061060a600480360360208110156105f457600080fd5b810190808035906020019092919050505061103f565b6040518085815260200180602001848152602001838152602001828103825285818151815260200191508051906020019080838360005b8381101561065c578082015181840152602081019050610641565b50505050905090810190601f1680156106895780820380516001836020036101000a031916815260200191505b509550505050505060405180910390f35b3480156106a657600080fd5b506106af611114565b6040518082815260200191505060405180910390f35b3480156106d157600080fd5b506107b5600480360360608110156106e857600080fd5b810190808035906020019064010000000081111561070557600080fd5b82018360208201111561071757600080fd5b8035906020019184600183028401116401000000008311171561073957600080fd5b91908080601f016020809104026020016040519081016040528093929190818152602001838380828437600081840152601f19601f820116905080830192505050505050509192919290803573ffffffffffffffffffffffffffffffffffffffff16906020019092919080359060200190929190505050611121565b60405180806020018373ffffffffffffffffffffffffffffffffffffffff1673ffffffffffffffffffffffffffffffffffffffff168152602001828103825284818151815260200191508051906020019080838360005b8381101561082757808201518184015260208101905061080c565b50505050905090810190601f1680156108545780820380516001836020036101000a031916815260200191505b50935050505060405180910390f35b34801561086f57600080fd5b506108b26004803603602081101561088657600080fd5b81019080803573ffffffffffffffffffffffffffffffffffffffff169060200190929190505050611592565b604051808373ffffffffffffffffffffffffffffffffffffffff1673ffffffffffffffffffffffffffffffffffffffff1681526020018281526020019250505060405180910390f35b6001818154811061090857fe5b9060005260206000209060020201600091509050806000018054600181600116156101000203166002900480601f0160208091040260200160405190810160405280929190818152602001828054600181600116156101000203166002900480156109b45780601f10610989576101008083540402835291602001916109b4565b820191906000526020600020905b81548152906001019060200180831161099757829003601f168201915b5050505050908060010160009054906101000a900473ffffffffffffffffffffffffffffffffffffffff16905082565b606060007fb6ab070b0d43d0926c59924b70d63b2d2cfdd21b8d747bb3ed300155582ff349600360008573ffffffffffffffffffffffffffffffffffffffff1673ffffffffffffffffffffffffffffffffffffffff168152602001908152602001600020600001600360008673ffffffffffffffffffffffffffffffffffffffff1673ffffffffffffffffffffffffffffffffffffffff16815260200190815260200160002060010160009054906101000a900473ffffffffffffffffffffffffffffffffffffffff1660405180806020018373ffffffffffffffffffffffffffffffffffffffff1673ffffffffffffffffffffffffffffffffffffffff168152602001828103825284818154600181600116156101000203166002900481526020019150805460018160011615610100020316600290048015610b695780601f10610b3e57610100808354040283529160200191610b69565b820191906000526020600020905b815481529060010190602001808311610b4c57829003601f168201915b5050935050505060405180910390a1600360008473ffffffffffffffffffffffffffffffffffffffff1673ffffffffffffffffffffffffffffffffffffffff168152602001908152602001600020600001600360008573ffffffffffffffffffffffffffffffffffffffff1673ffffffffffffffffffffffffffffffffffffffff16815260200190815260200160002060010160009054906101000a900473ffffffffffffffffffffffffffffffffffffffff16818054600181600116156101000203166002900480601f016020809104026020016040519081016040528092919081815260200182805460018160011615610100020316600290048015610cb25780601f10610c8757610100808354040283529160200191610cb2565b820191906000526020600020905b815481529060010190602001808311610c9557829003601f168201915b5050505050915091509150915091565b606060008060028481548110610cd457fe5b906000526020600020906004020160010160028581548110610cf257fe5b90600052602060002090600402016002015460028681548110610d1157fe5b906000526020600020906004020160030154828054600181600116156101000203166002900480601f016020809104026020016040519081016040528092919081815260200182805460018160011615610100020316600290048015610db85780601f10610d8d57610100808354040283529160200191610db8565b820191906000526020600020905b815481529060010190602001808311610d9b57829003601f168201915b505050505092509250925092509193909250565b6000600260405180608001604052806000548152602001858152602001600081526020018481525090806001815401808255809150509060018203906000526020600020906004020160009091929091909150600082015181600001556020820151816001019080519060200190610e459291906115d6565b50604082015181600201556060820151816003015550505060008081548092919060010191905055506001905092915050565b6003602052806000526040600020600091509050806000018054600181600116156101000203166002900480601f016020809104026020016040519081016040528092919081815260200182805460018160011615610100020316600290048015610f245780601f10610ef957610100808354040283529160200191610f24565b820191906000526020600020905b815481529060010190602001808311610f0757829003601f168201915b5050505050908060010160009054906101000a900473ffffffffffffffffffffffffffffffffffffffff16905082565b60008160028481548110610f6457fe5b9060005260206000209060040201600301600082825401925050819055506001905092915050565b60003460028381548110610f9c57fe5b90600052602060002090600402016002016000828254019250508190555060028281548110610fc757fe5b90600052602060002090600402016003015434111561100957600060028381548110610fef57fe5b906000526020600020906004020160030181905550611036565b346002838154811061101757fe5b9060005260206000209060040201600301600082825403925050819055505b60019050919050565b6002818154811061104c57fe5b9060005260206000209060040201600091509050806000015490806001018054600181600116156101000203166002900480601f0160208091040260200160405190810160405280929190818152602001828054600181600116156101000203166002900480156110fe5780601f106110d3576101008083540402835291602001916110fe565b820191906000526020600020905b8154815290600101906020018083116110e157829003601f168201915b5050505050908060020154908060030154905084565b6000600280549050905090565b60606000600160405180604001604052808781526020018673ffffffffffffffffffffffffffffffffffffffff168152509080600181540180825580915050906001820390600052602060002090600202016000909192909190915060008201518160000190805190602001906111999291906115d6565b5060208201518160010160006101000a81548173ffffffffffffffffffffffffffffffffffffffff021916908373ffffffffffffffffffffffffffffffffffffffff16021790555050505060405180604001604052808681526020018573ffffffffffffffffffffffffffffffffffffffff16815250600360008673ffffffffffffffffffffffffffffffffffffffff1673ffffffffffffffffffffffffffffffffffffffff168152602001908152602001600020600082015181600001908051906020019061126a9291906115d6565b5060208201518160010160006101000a81548173ffffffffffffffffffffffffffffffffffffffff021916908373ffffffffffffffffffffffffffffffffffffffff1602179055509050507f606681bf877477f0e834b0808a45decfae501210db5bce12a3aa3e1c8f603bb9600360008673ffffffffffffffffffffffffffffffffffffffff1673ffffffffffffffffffffffffffffffffffffffff168152602001908152602001600020600001600360008773ffffffffffffffffffffffffffffffffffffffff1673ffffffffffffffffffffffffffffffffffffffff16815260200190815260200160002060010160009054906101000a900473ffffffffffffffffffffffffffffffffffffffff1660405180806020018373ffffffffffffffffffffffffffffffffffffffff1673ffffffffffffffffffffffffffffffffffffffff1681526020018281038252848181546001816001161561010002031660029004815260200191508054600181600116156101000203166002900480156114365780601f1061140b57610100808354040283529160200191611436565b820191906000526020600020905b81548152906001019060200180831161141957829003601f168201915b5050935050505060405180910390a1600360008573ffffffffffffffffffffffffffffffffffffffff1673ffffffffffffffffffffffffffffffffffffffff168152602001908152602001600020600001600360008673ffffffffffffffffffffffffffffffffffffffff1673ffffffffffffffffffffffffffffffffffffffff16815260200190815260200160002060010160009054906101000a900473ffffffffffffffffffffffffffffffffffffffff16818054600181600116156101000203166002900480601f01602080910402602001604051908101604052809291908181526020018280546001816001161561010002031660029004801561157f5780601f106115545761010080835404028352916020019161157f565b820191906000526020600020905b81548152906001019060200180831161156257829003601f168201915b5050505050915091509150935093915050565b60046020528060005260406000206000915090508060000160009054906101000a900473ffffffffffffffffffffffffffffffffffffffff16908060010154905082565b828054600181600116156101000203166002900490600052602060002090601f016020900481019282601f1061161757805160ff1916838001178555611645565b82800160010185558215611645579182015b82811115611644578251825591602001919060010190611629565b5b5090506116529190611656565b5090565b61167891905b8082111561167457600081600090555060010161165c565b5090565b9056fea265627a7a723158205aeab34a1739301ae1034c995a86763a2b852fe502eb88cbdfbebac78cbf233264736f6c63430005100032",
  "source": "// SPDX-License-Identifier: MIT\npragma solidity >=0.4.22 <0.9.0;\n\ncontract CryptoDonater {\n\n  struct Category {\n    uint catId;\n    string catName;\n    uint catBalance;\n    uint catNeed;\n  }\n\n  struct Charity {\n    string charityName;\n    address charityAddress;\n  }\n\n  struct Donor {\n    address donorAddress;\n    uint donorValue;\n  }\n\n  uint currentCatId;\n\n  Charity[] public charityListings;\n  Category[] public catList;\n\n  mapping(address => Charity) public charityList;\n  mapping(address => Donor) public donorList;\n\n  event logCreateCharity(string name, address addr);\n  event logGetCharity(string name, address addr);\n\n  constructor() public {\n    currentCatId = catList.length;\n  }\n\n  // let charity;\n  // CryptoDonater.at(\"0xA8a51239A735a6BA00d20e282d2A56Eae5439191\").then(function(x) { charity = x });\n  // charity.createCharity(\"Fred's Team\", \"0x160dBbe421aC2A88fc4f1dbAE62D7D6357141a16\", 73).then(function(x) { return x; });\n\n  function createCharity(string memory _charityName, address _charityAddress, uint _charityNeed)\n    public\n    returns(string memory charityName, address charityAddress)\n  {\n    charityListings.push(Charity({\n      charityName: _charityName,\n      charityAddress: _charityAddress\n    }));\n    charityList[_charityAddress] = Charity({\n      charityName: _charityName,\n      charityAddress: _charityAddress\n    });\n    emit logCreateCharity(\n      charityList[_charityAddress].charityName,\n      charityList[_charityAddress].charityAddress\n    );\n    return (\n      charityList[_charityAddress].charityName,\n      charityList[_charityAddress].charityAddress\n    );\n  }\n\n  // charity.getCharity(\"0x3F33D19b5E79fD52E387f795d878F4b392683471\").then(function(x) { return x; });\n  function getCharity(address _charityAddress)\n    public\n    returns(string memory charityName, address charityAddress)\n  {\n    emit logGetCharity(\n      charityList[_charityAddress].charityName,\n      charityList[_charityAddress].charityAddress\n    );\n    return (\n      charityList[_charityAddress].charityName,\n      charityList[_charityAddress].charityAddress\n    );\n  }\n\n  // charity.createCategory(\"Logistics Costs\", 200).then(function(x) { return x; });\n  function createCategory(string memory _catName, uint _catNeed)\n    public\n    returns(bool)\n  {\n    catList.push(Category({catId: currentCatId, catName: _catName, catBalance: 0, catNeed: _catNeed}));\n    currentCatId++;\n    return true;\n  }\n\n  // charity.updateCategoryNeed(1, 200).then(function(x) { return x; });\n  function updateCategoryNeed(uint _catId, uint _catNeed)\n    public\n    returns(bool)\n  {\n    catList[_catId].catNeed += _catNeed;\n    return true;\n  }\n\n  // charity.getCatListLength().then(function(x) { return x; });\n  function getCatListLength()\n    public\n    returns(uint)\n  {\n    return catList.length;\n  }\n\n  // charity.sendDonation(4).then(function(x) { return x; });\n  function sendDonation(uint catId)\n    public\n    payable\n    returns(bool)\n  {\n    catList[catId].catBalance+=msg.value;\n    if(msg.value > catList[catId].catNeed) catList[catId].catNeed = 0;\n    else catList[catId].catNeed-=msg.value;\n    return true;\n  }\n\n  // charity.getCatValues(2).then(function(x) { return x; });\n  function getCatValues(uint catId)\n    public\n    returns(string memory, uint, uint)\n  {\n    return (catList[catId].catName, catList[catId].catBalance, catList[catId].catNeed);\n  }\n\n  // Future: Send payabale transaction from smart contract to charity org address.\n  // function sendDonationToCharity(uint catId) public payable returns(uint) { }\n\n}\n",
  "sourcePath": "/Users/knagaraj/Github/Blockchain/blockchain-developer-bootcamp-final-project/contracts/CryptoDonater.sol",
  "compiler": {
    "name": "solc",
    "version": "0.5.16+commit.9c3226ce.Emscripten.clang"
  },
  "schemaVersion": "3.4.3",
  "updatedAt": "2021-11-27T05:03:01.101Z",
  "networkType": "ethereum",
  "devdoc": {
    "methods": {}
  },
  "userdoc": {
    "methods": {}
  }
}