{
  "contractName": "CryptoDonater",
  "abi": [
    {
      "inputs": [],
      "payable": false,
      "stateMutability": "nonpayable",
      "type": "constructor"
    },
    {
      "anonymous": false,
      "inputs": [
        {
          "indexed": false,
          "internalType": "string",
          "name": "name",
          "type": "string"
        },
        {
          "indexed": false,
          "internalType": "address",
          "name": "addr",
          "type": "address"
        }
      ],
      "name": "logCreateCharity",
      "type": "event"
    },
    {
      "anonymous": false,
      "inputs": [
        {
          "indexed": false,
          "internalType": "string",
          "name": "name",
          "type": "string"
        },
        {
          "indexed": false,
          "internalType": "address",
          "name": "addr",
          "type": "address"
        }
      ],
      "name": "logGetCharity",
      "type": "event"
    },
    {
      "constant": true,
      "inputs": [
        {
          "internalType": "uint256",
          "name": "",
          "type": "uint256"
        }
      ],
      "name": "catList",
      "outputs": [
        {
          "internalType": "uint256",
          "name": "catId",
          "type": "uint256"
        },
        {
          "internalType": "string",
          "name": "catName",
          "type": "string"
        },
        {
          "internalType": "uint256",
          "name": "catBalance",
          "type": "uint256"
        },
        {
          "internalType": "uint256",
          "name": "catNeed",
          "type": "uint256"
        }
      ],
      "payable": false,
      "stateMutability": "view",
      "type": "function"
    },
    {
      "constant": true,
      "inputs": [
        {
          "internalType": "address",
          "name": "",
          "type": "address"
        }
      ],
      "name": "charityList",
      "outputs": [
        {
          "internalType": "string",
          "name": "charityName",
          "type": "string"
        },
        {
          "internalType": "address",
          "name": "charityAddress",
          "type": "address"
        }
      ],
      "payable": false,
      "stateMutability": "view",
      "type": "function"
    },
    {
      "constant": true,
      "inputs": [
        {
          "internalType": "uint256",
          "name": "",
          "type": "uint256"
        }
      ],
      "name": "charityListings",
      "outputs": [
        {
          "internalType": "string",
          "name": "charityName",
          "type": "string"
        },
        {
          "internalType": "address",
          "name": "charityAddress",
          "type": "address"
        }
      ],
      "payable": false,
      "stateMutability": "view",
      "type": "function"
    },
    {
      "constant": true,
      "inputs": [
        {
          "internalType": "address",
          "name": "",
          "type": "address"
        }
      ],
      "name": "donorList",
      "outputs": [
        {
          "internalType": "address",
          "name": "donorAddress",
          "type": "address"
        },
        {
          "internalType": "uint256",
          "name": "donorValue",
          "type": "uint256"
        }
      ],
      "payable": false,
      "stateMutability": "view",
      "type": "function"
    },
    {
      "constant": false,
      "inputs": [
        {
          "internalType": "string",
          "name": "_charityName",
          "type": "string"
        },
        {
          "internalType": "address",
          "name": "_charityAddress",
          "type": "address"
        },
        {
          "internalType": "uint256",
          "name": "_charityNeed",
          "type": "uint256"
        }
      ],
      "name": "createCharity",
      "outputs": [
        {
          "internalType": "string",
          "name": "charityName",
          "type": "string"
        },
        {
          "internalType": "address",
          "name": "charityAddress",
          "type": "address"
        }
      ],
      "payable": false,
      "stateMutability": "nonpayable",
      "type": "function"
    },
    {
      "constant": false,
      "inputs": [
        {
          "internalType": "address",
          "name": "_charityAddress",
          "type": "address"
        }
      ],
      "name": "getCharity",
      "outputs": [
        {
          "internalType": "string",
          "name": "charityName",
          "type": "string"
        },
        {
          "internalType": "address",
          "name": "charityAddress",
          "type": "address"
        }
      ],
      "payable": false,
      "stateMutability": "nonpayable",
      "type": "function"
    },
    {
      "constant": false,
      "inputs": [
        {
          "internalType": "string",
          "name": "_catName",
          "type": "string"
        },
        {
          "internalType": "uint256",
          "name": "_catBalance",
          "type": "uint256"
        },
        {
          "internalType": "uint256",
          "name": "_catNeed",
          "type": "uint256"
        }
      ],
      "name": "createCategory",
      "outputs": [
        {
          "internalType": "bool",
          "name": "successful",
          "type": "bool"
        }
      ],
      "payable": false,
      "stateMutability": "nonpayable",
      "type": "function"
    },
    {
      "constant": false,
      "inputs": [
        {
          "internalType": "uint256",
          "name": "catId",
          "type": "uint256"
        },
        {
          "internalType": "uint256",
          "name": "catNeed",
          "type": "uint256"
        }
      ],
      "name": "sendDonation",
      "outputs": [
        {
          "internalType": "bool",
          "name": "completed",
          "type": "bool"
        }
      ],
      "payable": true,
      "stateMutability": "payable",
      "type": "function"
    }
  ],
  "bytecode": "0x608060405234801561001057600080fd5b506002805490506000819055506113bd8061002c6000396000f3fe60806040526004361061007b5760003560e01c80639cc0cdf01161004e5780639cc0cdf01461042a5780639f88fb3e1461051e578063c907f5621461056e578063fcff72661461070c5761007b565b80630e448f65146100805780631bf230cd1461016757806338a88837146102645780638ecd914514610361575b600080fd5b34801561008c57600080fd5b506100b9600480360360208110156100a357600080fd5b81019080803590602001909291905050506107a4565b60405180806020018373ffffffffffffffffffffffffffffffffffffffff1673ffffffffffffffffffffffffffffffffffffffff168152602001828103825284818151815260200191508051906020019080838360005b8381101561012b578082015181840152602081019050610110565b50505050905090810190601f1680156101585780820380516001836020036101000a031916815260200191505b50935050505060405180910390f35b34801561017357600080fd5b506101b66004803603602081101561018a57600080fd5b81019080803573ffffffffffffffffffffffffffffffffffffffff16906020019092919050505061088d565b60405180806020018373ffffffffffffffffffffffffffffffffffffffff1673ffffffffffffffffffffffffffffffffffffffff168152602001828103825284818151815260200191508051906020019080838360005b8381101561022857808201518184015260208101905061020d565b50505050905090810190601f1680156102555780820380516001836020036101000a031916815260200191505b50935050505060405180910390f35b34801561027057600080fd5b506102b36004803603602081101561028757600080fd5b81019080803573ffffffffffffffffffffffffffffffffffffffff169060200190929190505050610b6b565b60405180806020018373ffffffffffffffffffffffffffffffffffffffff1673ffffffffffffffffffffffffffffffffffffffff168152602001828103825284818151815260200191508051906020019080838360005b8381101561032557808201518184015260208101905061030a565b50505050905090810190601f1680156103525780820380516001836020036101000a031916815260200191505b50935050505060405180910390f35b34801561036d57600080fd5b5061039a6004803603602081101561038457600080fd5b8101908080359060200190929190505050610c47565b6040518085815260200180602001848152602001838152602001828103825285818151815260200191508051906020019080838360005b838110156103ec5780820151818401526020810190506103d1565b50505050905090810190601f1680156104195780820380516001836020036101000a031916815260200191505b509550505050505060405180910390f35b34801561043657600080fd5b506105046004803603606081101561044d57600080fd5b810190808035906020019064010000000081111561046a57600080fd5b82018360208201111561047c57600080fd5b8035906020019184600183028401116401000000008311171561049e57600080fd5b91908080601f016020809104026020016040519081016040528093929190818152602001838380828437600081840152601f19601f8201169050808301925050505050505091929192908035906020019092919080359060200190929190505050610d1c565b604051808215151515815260200191505060405180910390f35b6105546004803603604081101561053457600080fd5b810190808035906020019092919080359060200190929190505050610dca565b604051808215151515815260200191505060405180910390f35b34801561057a57600080fd5b5061065e6004803603606081101561059157600080fd5b81019080803590602001906401000000008111156105ae57600080fd5b8201836020820111156105c057600080fd5b803590602001918460018302840111640100000000831117156105e257600080fd5b91908080601f016020809104026020016040519081016040528093929190818152602001838380828437600081840152601f19601f820116905080830192505050505050509192919290803573ffffffffffffffffffffffffffffffffffffffff16906020019092919080359060200190929190505050610e2e565b60405180806020018373ffffffffffffffffffffffffffffffffffffffff1673ffffffffffffffffffffffffffffffffffffffff168152602001828103825284818151815260200191508051906020019080838360005b838110156106d05780820151818401526020810190506106b5565b50505050905090810190601f1680156106fd5780820380516001836020036101000a031916815260200191505b50935050505060405180910390f35b34801561071857600080fd5b5061075b6004803603602081101561072f57600080fd5b81019080803573ffffffffffffffffffffffffffffffffffffffff16906020019092919050505061129f565b604051808373ffffffffffffffffffffffffffffffffffffffff1673ffffffffffffffffffffffffffffffffffffffff1681526020018281526020019250505060405180910390f35b600181815481106107b157fe5b9060005260206000209060020201600091509050806000018054600181600116156101000203166002900480601f01602080910402602001604051908101604052809291908181526020018280546001816001161561010002031660029004801561085d5780601f106108325761010080835404028352916020019161085d565b820191906000526020600020905b81548152906001019060200180831161084057829003601f168201915b5050505050908060010160009054906101000a900473ffffffffffffffffffffffffffffffffffffffff16905082565b606060007fb6ab070b0d43d0926c59924b70d63b2d2cfdd21b8d747bb3ed300155582ff349600360008573ffffffffffffffffffffffffffffffffffffffff1673ffffffffffffffffffffffffffffffffffffffff168152602001908152602001600020600001600360008673ffffffffffffffffffffffffffffffffffffffff1673ffffffffffffffffffffffffffffffffffffffff16815260200190815260200160002060010160009054906101000a900473ffffffffffffffffffffffffffffffffffffffff1660405180806020018373ffffffffffffffffffffffffffffffffffffffff1673ffffffffffffffffffffffffffffffffffffffff168152602001828103825284818154600181600116156101000203166002900481526020019150805460018160011615610100020316600290048015610a125780601f106109e757610100808354040283529160200191610a12565b820191906000526020600020905b8154815290600101906020018083116109f557829003601f168201915b5050935050505060405180910390a1600360008473ffffffffffffffffffffffffffffffffffffffff1673ffffffffffffffffffffffffffffffffffffffff168152602001908152602001600020600001600360008573ffffffffffffffffffffffffffffffffffffffff1673ffffffffffffffffffffffffffffffffffffffff16815260200190815260200160002060010160009054906101000a900473ffffffffffffffffffffffffffffffffffffffff16818054600181600116156101000203166002900480601f016020809104026020016040519081016040528092919081815260200182805460018160011615610100020316600290048015610b5b5780601f10610b3057610100808354040283529160200191610b5b565b820191906000526020600020905b815481529060010190602001808311610b3e57829003601f168201915b5050505050915091509150915091565b6003602052806000526040600020600091509050806000018054600181600116156101000203166002900480601f016020809104026020016040519081016040528092919081815260200182805460018160011615610100020316600290048015610c175780601f10610bec57610100808354040283529160200191610c17565b820191906000526020600020905b815481529060010190602001808311610bfa57829003601f168201915b5050505050908060010160009054906101000a900473ffffffffffffffffffffffffffffffffffffffff16905082565b60028181548110610c5457fe5b9060005260206000209060040201600091509050806000015490806001018054600181600116156101000203166002900480601f016020809104026020016040519081016040528092919081815260200182805460018160011615610100020316600290048015610d065780601f10610cdb57610100808354040283529160200191610d06565b820191906000526020600020905b815481529060010190602001808311610ce957829003601f168201915b5050505050908060020154908060030154905084565b600060026040518060800160405280600054815260200186815260200160008152602001600081525090806001815401808255809150509060018203906000526020600020906004020160009091929091909150600082015181600001556020820151816001019080519060200190610d969291906112e3565b5060408201518160020155606082015181600301555050506000808154809291906001019190505550600190509392505050565b60003460028481548110610dda57fe5b9060005260206000209060040201600201600082825401925050819055508160028481548110610e0657fe5b9060005260206000209060040201600301600082825401925050819055506001905092915050565b60606000600160405180604001604052808781526020018673ffffffffffffffffffffffffffffffffffffffff16815250908060018154018082558091505090600182039060005260206000209060020201600090919290919091506000820151816000019080519060200190610ea69291906112e3565b5060208201518160010160006101000a81548173ffffffffffffffffffffffffffffffffffffffff021916908373ffffffffffffffffffffffffffffffffffffffff16021790555050505060405180604001604052808681526020018573ffffffffffffffffffffffffffffffffffffffff16815250600360008673ffffffffffffffffffffffffffffffffffffffff1673ffffffffffffffffffffffffffffffffffffffff1681526020019081526020016000206000820151816000019080519060200190610f779291906112e3565b5060208201518160010160006101000a81548173ffffffffffffffffffffffffffffffffffffffff021916908373ffffffffffffffffffffffffffffffffffffffff1602179055509050507f606681bf877477f0e834b0808a45decfae501210db5bce12a3aa3e1c8f603bb9600360008673ffffffffffffffffffffffffffffffffffffffff1673ffffffffffffffffffffffffffffffffffffffff168152602001908152602001600020600001600360008773ffffffffffffffffffffffffffffffffffffffff1673ffffffffffffffffffffffffffffffffffffffff16815260200190815260200160002060010160009054906101000a900473ffffffffffffffffffffffffffffffffffffffff1660405180806020018373ffffffffffffffffffffffffffffffffffffffff1673ffffffffffffffffffffffffffffffffffffffff1681526020018281038252848181546001816001161561010002031660029004815260200191508054600181600116156101000203166002900480156111435780601f1061111857610100808354040283529160200191611143565b820191906000526020600020905b81548152906001019060200180831161112657829003601f168201915b5050935050505060405180910390a1600360008573ffffffffffffffffffffffffffffffffffffffff1673ffffffffffffffffffffffffffffffffffffffff168152602001908152602001600020600001600360008673ffffffffffffffffffffffffffffffffffffffff1673ffffffffffffffffffffffffffffffffffffffff16815260200190815260200160002060010160009054906101000a900473ffffffffffffffffffffffffffffffffffffffff16818054600181600116156101000203166002900480601f01602080910402602001604051908101604052809291908181526020018280546001816001161561010002031660029004801561128c5780601f106112615761010080835404028352916020019161128c565b820191906000526020600020905b81548152906001019060200180831161126f57829003601f168201915b5050505050915091509150935093915050565b60046020528060005260406000206000915090508060000160009054906101000a900473ffffffffffffffffffffffffffffffffffffffff16908060010154905082565b828054600181600116156101000203166002900490600052602060002090601f016020900481019282601f1061132457805160ff1916838001178555611352565b82800160010185558215611352579182015b82811115611351578251825591602001919060010190611336565b5b50905061135f9190611363565b5090565b61138591905b80821115611381576000816000905550600101611369565b5090565b9056fea265627a7a72315820baf423b2dc5e8611451c252227d369a09970dfa5024b7e97bdee02769b478dfd64736f6c63430005100032",
  "source": "// SPDX-License-Identifier: MIT\npragma solidity >=0.4.22 <0.9.0;\n\ncontract CryptoDonater {\n\n  struct Category {\n    uint catId;\n    string catName;\n    uint catBalance;\n    uint catNeed;\n  }\n\n  struct Charity {\n    string charityName;\n    address charityAddress;\n  }\n\n  struct Donor {\n    address donorAddress;\n    uint donorValue;\n  }\n\n  uint currentCatId;\n\n  Charity[] public charityListings;\n  Category[] public catList;\n\n  mapping(address => Charity) public charityList;\n  mapping(address => Donor) public donorList;\n\n  event logCreateCharity(string name, address addr);\n  event logGetCharity(string name, address addr);\n\n  constructor() public {\n    currentCatId = catList.length;\n  }\n\n  // let charity;\n  // CryptoDonater.at(\"0x0AAa9064D3B5B597a4Ef8Ab5d20f6e00CD5fd177\").then(function(x) { charity = x });\n  // charity.createCharity(\"Fred's Team\", \"0x160dBbe421aC2A88fc4f1dbAE62D7D6357141a16\", 73).then(function(x) { return x; });\n\n  function createCharity(string memory _charityName, address _charityAddress, uint _charityNeed)\n    public\n    returns(string memory charityName, address charityAddress)\n  {\n    charityListings.push(Charity({\n      charityName: _charityName,\n      charityAddress: _charityAddress\n    }));\n    charityList[_charityAddress] = Charity({\n      charityName: _charityName,\n      charityAddress: _charityAddress\n    });\n    emit logCreateCharity(\n      charityList[_charityAddress].charityName,\n      charityList[_charityAddress].charityAddress\n    );\n    return (\n      charityList[_charityAddress].charityName,\n      charityList[_charityAddress].charityAddress\n    );\n  }\n\n  // charity.getCharity(\"0x3F33D19b5E79fD52E387f795d878F4b392683471\").then(function(x) { return x; });\n  function getCharity(address _charityAddress)\n    public\n    returns(string memory charityName, address charityAddress)\n  {\n    emit logGetCharity(\n      charityList[_charityAddress].charityName,\n      charityList[_charityAddress].charityAddress\n    );\n    return (\n      charityList[_charityAddress].charityName,\n      charityList[_charityAddress].charityAddress\n    );\n  }\n  // charity.createCategory(\"Logistics Costs\", 2300, 200).then(function(x) { return x; });\n  function createCategory(string memory _catName, uint _catBalance, uint _catNeed)\n    public\n    returns(bool successful)\n  {\n    catList.push(Category({catId: currentCatId, catName: _catName, catBalance: 0, catNeed: 0}));\n    currentCatId++;\n    return true;\n  }\n\n  // charity.sendDonation(4, 25).then(function(x) { return x; });\n  function sendDonation(uint catId, uint catNeed)\n    public\n    payable\n    returns(bool completed)\n  {\n    catList[catId].catBalance+=msg.value;\n    catList[catId].catNeed+=catNeed;\n    return true;\n  }\n\n}\n",
  "sourcePath": "/Users/knagaraj/Github/Blockchain/blockchain-developer-bootcamp-final-project/contracts/CryptoDonater.sol",
  "compiler": {
    "name": "solc",
    "version": "0.5.16+commit.9c3226ce.Emscripten.clang"
  },
  "schemaVersion": "3.4.3",
  "updatedAt": "2021-11-24T06:18:08.575Z",
  "devdoc": {
    "methods": {}
  },
  "userdoc": {
    "methods": {}
  }
}