{
  "contractName": "CryptoDonater",
  "abi": [
    {
      "inputs": [],
      "stateMutability": "nonpayable",
      "type": "constructor"
    },
    {
      "anonymous": false,
      "inputs": [
        {
          "indexed": false,
          "internalType": "string",
          "name": "message",
          "type": "string"
        },
        {
          "indexed": false,
          "internalType": "uint256",
          "name": "catId",
          "type": "uint256"
        },
        {
          "indexed": false,
          "internalType": "string",
          "name": "catName",
          "type": "string"
        },
        {
          "indexed": false,
          "internalType": "uint256",
          "name": "catBalance",
          "type": "uint256"
        },
        {
          "indexed": false,
          "internalType": "uint256",
          "name": "catNeed",
          "type": "uint256"
        }
      ],
      "name": "LogCreateCategory",
      "type": "event"
    },
    {
      "anonymous": false,
      "inputs": [
        {
          "indexed": false,
          "internalType": "string",
          "name": "message",
          "type": "string"
        },
        {
          "indexed": false,
          "internalType": "uint256",
          "name": "catId",
          "type": "uint256"
        },
        {
          "indexed": false,
          "internalType": "string",
          "name": "catName",
          "type": "string"
        },
        {
          "indexed": false,
          "internalType": "uint256",
          "name": "catBalance",
          "type": "uint256"
        },
        {
          "indexed": false,
          "internalType": "uint256",
          "name": "catNeed",
          "type": "uint256"
        }
      ],
      "name": "LogDonation",
      "type": "event"
    },
    {
      "anonymous": false,
      "inputs": [
        {
          "indexed": false,
          "internalType": "string",
          "name": "message",
          "type": "string"
        },
        {
          "indexed": false,
          "internalType": "uint256",
          "name": "catId",
          "type": "uint256"
        },
        {
          "indexed": false,
          "internalType": "string",
          "name": "catName",
          "type": "string"
        },
        {
          "indexed": false,
          "internalType": "uint256",
          "name": "catBalance",
          "type": "uint256"
        },
        {
          "indexed": false,
          "internalType": "uint256",
          "name": "catNeed",
          "type": "uint256"
        }
      ],
      "name": "LogNeedUpdated",
      "type": "event"
    },
    {
      "inputs": [
        {
          "internalType": "uint256",
          "name": "",
          "type": "uint256"
        }
      ],
      "name": "catList",
      "outputs": [
        {
          "internalType": "uint256",
          "name": "catId",
          "type": "uint256"
        },
        {
          "internalType": "string",
          "name": "catName",
          "type": "string"
        },
        {
          "internalType": "uint256",
          "name": "catBalance",
          "type": "uint256"
        },
        {
          "internalType": "uint256",
          "name": "catNeed",
          "type": "uint256"
        }
      ],
      "stateMutability": "view",
      "type": "function"
    },
    {
      "inputs": [],
      "name": "getLatestPrice",
      "outputs": [
        {
          "internalType": "int256",
          "name": "",
          "type": "int256"
        }
      ],
      "stateMutability": "view",
      "type": "function"
    },
    {
      "inputs": [
        {
          "internalType": "string",
          "name": "_catName",
          "type": "string"
        },
        {
          "internalType": "uint256",
          "name": "_catNeed",
          "type": "uint256"
        }
      ],
      "name": "createCategory",
      "outputs": [
        {
          "internalType": "bool",
          "name": "",
          "type": "bool"
        }
      ],
      "stateMutability": "nonpayable",
      "type": "function"
    },
    {
      "inputs": [
        {
          "internalType": "uint256",
          "name": "_catId",
          "type": "uint256"
        },
        {
          "internalType": "uint256",
          "name": "_catNeed",
          "type": "uint256"
        }
      ],
      "name": "updateCategoryNeed",
      "outputs": [
        {
          "internalType": "bool",
          "name": "",
          "type": "bool"
        }
      ],
      "stateMutability": "nonpayable",
      "type": "function"
    },
    {
      "inputs": [],
      "name": "getCatListLength",
      "outputs": [
        {
          "internalType": "uint256",
          "name": "",
          "type": "uint256"
        }
      ],
      "stateMutability": "view",
      "type": "function"
    },
    {
      "inputs": [
        {
          "internalType": "uint256",
          "name": "catId",
          "type": "uint256"
        }
      ],
      "name": "sendDonation",
      "outputs": [
        {
          "internalType": "bool",
          "name": "",
          "type": "bool"
        }
      ],
      "stateMutability": "payable",
      "type": "function"
    },
    {
      "inputs": [
        {
          "internalType": "uint256",
          "name": "catId",
          "type": "uint256"
        }
      ],
      "name": "getCatValues",
      "outputs": [
        {
          "internalType": "string",
          "name": "",
          "type": "string"
        },
        {
          "internalType": "uint256",
          "name": "",
          "type": "uint256"
        },
        {
          "internalType": "uint256",
          "name": "",
          "type": "uint256"
        }
      ],
      "stateMutability": "view",
      "type": "function"
    }
  ],
  "bytecode": "0x608060405234801561001057600080fd5b50600180549050600081905550739326bfa02add2366b30bacb125260af641031331600260006101000a81548173ffffffffffffffffffffffffffffffffffffffff021916908373ffffffffffffffffffffffffffffffffffffffff160217905550611818806100816000396000f3fe6080604052600436106100705760003560e01c8063665588c91161004e578063665588c91461012e5780638e15f4731461015e5780638ecd914514610189578063a1031987146101c957610070565b80632d975f451461007557806330f1081a146100b45780635ff469bd146100f1575b600080fd5b34801561008157600080fd5b5061009c60048036038101906100979190610d22565b6101f4565b6040516100ab93929190610df7565b60405180910390f35b3480156100c057600080fd5b506100db60048036038101906100d69190610f6a565b610359565b6040516100e89190610fe1565b60405180910390f35b3480156100fd57600080fd5b5061011860048036038101906101139190610ffc565b61055e565b6040516101259190610fe1565b60405180910390f35b61014860048036038101906101439190610d22565b610773565b6040516101559190610fe1565b60405180910390f35b34801561016a57600080fd5b50610173610ab1565b6040516101809190611055565b60405180910390f35b34801561019557600080fd5b506101b060048036038101906101ab9190610d22565b610b60565b6040516101c09493929190611070565b60405180910390f35b3480156101d557600080fd5b506101de610c28565b6040516101eb91906110bc565b60405180910390f35b6060600080836000811015801561020f575060018054905081105b61024e576040517f08c379a000000000000000000000000000000000000000000000000000000000815260040161024590611149565b60405180910390fd5b6001858154811061026257610261611169565b5b90600052602060002090600402016001016001868154811061028757610286611169565b5b906000526020600020906004020160020154600187815481106102ad576102ac611169565b5b9060005260206000209060040201600301548280546102cb906111c7565b80601f01602080910402602001604051908101604052809291908181526020018280546102f7906111c7565b80156103445780601f1061031957610100808354040283529160200191610344565b820191906000526020600020905b81548152906001019060200180831161032757829003601f168201915b50505050509250935093509350509193909250565b60008160008110156103a0576040517f08c379a000000000000000000000000000000000000000000000000000000000815260040161039790611245565b60405180910390fd5b60016040518060800160405280600054815260200186815260200160008152602001858152509080600181540180825580915050600190039060005260206000209060040201600090919091909150600082015181600001556020820151816001019080519060200190610415929190610c35565b5060408201518160020155606082015181600301555050600060016000548154811061044457610443611169565b5b9060005260206000209060040201600201541461046457610463611265565b5b7fd937cfe9b6f3b22925866debc872496fd74de32ac41e6181f72f88d6ad0d0d6a60016000548154811061049b5761049a611169565b5b9060005260206000209060040201600001546001600054815481106104c3576104c2611169565b5b90600052602060002090600402016001016001600054815481106104ea576104e9611169565b5b90600052602060002090600402016002015460016000548154811061051257610511611169565b5b9060005260206000209060040201600301546040516105349493929190611375565b60405180910390a160008081548092919061054e90611403565b9190505550600191505092915050565b60008260008110158015610576575060018054905081105b6105b5576040517f08c379a00000000000000000000000000000000000000000000000000000000081526004016105ac90611149565b60405180910390fd5b8260008110156105fa576040517f08c379a00000000000000000000000000000000000000000000000000000000081526004016105f190611245565b60405180910390fd5b6000600186815481106106105761060f611169565b5b9060005260206000209060040201600301549050846001878154811061063957610638611169565b5b90600052602060002090600402016003016000828254610659919061144c565b92505081905550806001878154811061067557610674611169565b5b906000526020600020906004020160030154101561069657610695611265565b5b7fea9b626d169e37b3676bdddd2a35d41e027d90a07f77ed01ea9e51cade063d4e600187815481106106cb576106ca611169565b5b906000526020600020906004020160000154600188815481106106f1576106f0611169565b5b90600052602060002090600402016001016001898154811061071657610715611169565b5b90600052602060002090600402016002015460018a8154811061073c5761073b611169565b5b90600052602060002090600402016003015460405161075e9493929190611514565b60405180910390a16001935050505092915050565b6000803410156107b8576040517f08c379a00000000000000000000000000000000000000000000000000000000081526004016107af906115e5565b60405180910390fd5b81600081101580156107ce575060018054905081105b61080d576040517f08c379a000000000000000000000000000000000000000000000000000000000815260040161080490611149565b60405180910390fd5b60006001848154811061082357610822611169565b5b9060005260206000209060040201600201549050346001858154811061084c5761084b611169565b5b9060005260206000209060040201600201600082825461086c919061144c565b92505081905550806001858154811061088857610887611169565b5b90600052602060002090600402016002015410156108a9576108a8611265565b5b6000600185815481106108bf576108be611169565b5b9060005260206000209060040201600301549050600185815481106108e7576108e6611169565b5b9060005260206000209060040201600301543411156109305760006001868154811061091657610915611169565b5b90600052602060002090600402016003018190555061096d565b346001868154811061094557610944611169565b5b906000526020600020906004020160030160008282546109659190611605565b925050819055505b60006001868154811061098357610982611169565b5b906000526020600020906004020160030154101580156109c8575080600186815481106109b3576109b2611169565b5b90600052602060002090600402016003015411155b6109d5576109d4611265565b5b7fea9b626d169e37b3676bdddd2a35d41e027d90a07f77ed01ea9e51cade063d4e60018681548110610a0a57610a09611169565b5b90600052602060002090600402016000015460018781548110610a3057610a2f611169565b5b906000526020600020906004020160010160018881548110610a5557610a54611169565b5b90600052602060002090600402016002015460018981548110610a7b57610a7a611169565b5b906000526020600020906004020160030154604051610a9d9493929190611685565b60405180910390a160019350505050919050565b600080600080600080600260009054906101000a900473ffffffffffffffffffffffffffffffffffffffff1673ffffffffffffffffffffffffffffffffffffffff1663feaf968c6040518163ffffffff1660e01b815260040160a060405180830381865afa158015610b27573d6000803e3d6000fd5b505050506040513d601f19601f82011682018060405250810190610b4b9190611767565b94509450945094509450839550505050505090565b60018181548110610b7057600080fd5b9060005260206000209060040201600091509050806000015490806001018054610b99906111c7565b80601f0160208091040260200160405190810160405280929190818152602001828054610bc5906111c7565b8015610c125780601f10610be757610100808354040283529160200191610c12565b820191906000526020600020905b815481529060010190602001808311610bf557829003601f168201915b5050505050908060020154908060030154905084565b6000600180549050905090565b828054610c41906111c7565b90600052602060002090601f016020900481019282610c635760008555610caa565b82601f10610c7c57805160ff1916838001178555610caa565b82800160010185558215610caa579182015b82811115610ca9578251825591602001919060010190610c8e565b5b509050610cb79190610cbb565b5090565b5b80821115610cd4576000816000905550600101610cbc565b5090565b6000604051905090565b600080fd5b600080fd5b6000819050919050565b610cff81610cec565b8114610d0a57600080fd5b50565b600081359050610d1c81610cf6565b92915050565b600060208284031215610d3857610d37610ce2565b5b6000610d4684828501610d0d565b91505092915050565b600081519050919050565b600082825260208201905092915050565b60005b83811015610d89578082015181840152602081019050610d6e565b83811115610d98576000848401525b50505050565b6000601f19601f8301169050919050565b6000610dba82610d4f565b610dc48185610d5a565b9350610dd4818560208601610d6b565b610ddd81610d9e565b840191505092915050565b610df181610cec565b82525050565b60006060820190508181036000830152610e118186610daf565b9050610e206020830185610de8565b610e2d6040830184610de8565b949350505050565b600080fd5b600080fd5b7f4e487b7100000000000000000000000000000000000000000000000000000000600052604160045260246000fd5b610e7782610d9e565b810181811067ffffffffffffffff82111715610e9657610e95610e3f565b5b80604052505050565b6000610ea9610cd8565b9050610eb58282610e6e565b919050565b600067ffffffffffffffff821115610ed557610ed4610e3f565b5b610ede82610d9e565b9050602081019050919050565b82818337600083830152505050565b6000610f0d610f0884610eba565b610e9f565b905082815260208101848484011115610f2957610f28610e3a565b5b610f34848285610eeb565b509392505050565b600082601f830112610f5157610f50610e35565b5b8135610f61848260208601610efa565b91505092915050565b60008060408385031215610f8157610f80610ce2565b5b600083013567ffffffffffffffff811115610f9f57610f9e610ce7565b5b610fab85828601610f3c565b9250506020610fbc85828601610d0d565b9150509250929050565b60008115159050919050565b610fdb81610fc6565b82525050565b6000602082019050610ff66000830184610fd2565b92915050565b6000806040838503121561101357611012610ce2565b5b600061102185828601610d0d565b925050602061103285828601610d0d565b9150509250929050565b6000819050919050565b61104f8161103c565b82525050565b600060208201905061106a6000830184611046565b92915050565b60006080820190506110856000830187610de8565b81810360208301526110978186610daf565b90506110a66040830185610de8565b6110b36060830184610de8565b95945050505050565b60006020820190506110d16000830184610de8565b92915050565b7f43617465676f72792049442073686f756c64206265203e3d203020616e64203c60008201527f206361744c6973742e6c656e6774680000000000000000000000000000000000602082015250565b6000611133602f83610d5a565b915061113e826110d7565b604082019050919050565b6000602082019050818103600083015261116281611126565b9050919050565b7f4e487b7100000000000000000000000000000000000000000000000000000000600052603260045260246000fd5b7f4e487b7100000000000000000000000000000000000000000000000000000000600052602260045260246000fd5b600060028204905060018216806111df57607f821691505b602082108114156111f3576111f2611198565b5b50919050565b7f43617465676f7279204e6565642073686f756c64206265203e3d203000000000600082015250565b600061122f601c83610d5a565b915061123a826111f9565b602082019050919050565b6000602082019050818103600083015261125e81611222565b9050919050565b7f4e487b7100000000000000000000000000000000000000000000000000000000600052600160045260246000fd5b7f43617465676f7279205375636365737366756c6c792043726561746564000000600082015250565b60006112ca601d83610d5a565b91506112d582611294565b602082019050919050565b60008190508160005260206000209050919050565b60008154611302816111c7565b61130c8186610d5a565b9450600182166000811461132757600181146113395761136c565b60ff198316865260208601935061136c565b611342856112e0565b60005b8381101561136457815481890152600182019150602081019050611345565b808801955050505b50505092915050565b600060a082019050818103600083015261138e816112bd565b905061139d6020830187610de8565b81810360408301526113af81866112f5565b90506113be6060830185610de8565b6113cb6080830184610de8565b95945050505050565b7f4e487b7100000000000000000000000000000000000000000000000000000000600052601160045260246000fd5b600061140e82610cec565b91507fffffffffffffffffffffffffffffffffffffffffffffffffffffffffffffffff821415611441576114406113d4565b5b600182019050919050565b600061145782610cec565b915061146283610cec565b9250827fffffffffffffffffffffffffffffffffffffffffffffffffffffffffffffffff03821115611497576114966113d4565b5b828201905092915050565b7f43617465676f7279204e656564205375636365737366756c6c7920557064617460008201527f6564000000000000000000000000000000000000000000000000000000000000602082015250565b60006114fe602283610d5a565b9150611509826114a2565b604082019050919050565b600060a082019050818103600083015261152d816114f1565b905061153c6020830187610de8565b818103604083015261154e81866112f5565b905061155d6060830185610de8565b61156a6080830184610de8565b95945050505050565b7f446f6e6174696f6e20286d73672e76616c7565292073686f756c64206265203e60008201527f3d20300000000000000000000000000000000000000000000000000000000000602082015250565b60006115cf602383610d5a565b91506115da82611573565b604082019050919050565b600060208201905081810360008301526115fe816115c2565b9050919050565b600061161082610cec565b915061161b83610cec565b92508282101561162e5761162d6113d4565b5b828203905092915050565b7f446f6e6174696f6e205375636365737366756c00000000000000000000000000600082015250565b600061166f601383610d5a565b915061167a82611639565b602082019050919050565b600060a082019050818103600083015261169e81611662565b90506116ad6020830187610de8565b81810360408301526116bf81866112f5565b90506116ce6060830185610de8565b6116db6080830184610de8565b95945050505050565b600069ffffffffffffffffffff82169050919050565b611703816116e4565b811461170e57600080fd5b50565b600081519050611720816116fa565b92915050565b61172f8161103c565b811461173a57600080fd5b50565b60008151905061174c81611726565b92915050565b60008151905061176181610cf6565b92915050565b600080600080600060a0868803121561178357611782610ce2565b5b600061179188828901611711565b95505060206117a28882890161173d565b94505060406117b388828901611752565b93505060606117c488828901611752565b92505060806117d588828901611711565b915050929550929590935056fea264697066735822122000ff97c19ab71b3fc167b9b89160c48bf247f7abeb8eceefabe9140541f2ed0e64736f6c634300080a0033",
  "immutableReferences": {},
  "source": "// SPDX-License-Identifier: MIT\npragma solidity ^0.8.0;\nimport \"@chainlink/contracts/src/v0.8/interfaces/AggregatorV3Interface.sol\";\n\n/// @title Accepts donations into category pools\n/// @author Kaushik Nagaraj\n/// @notice Performs the following functions:\n/// @notice 1. Create a new category pool\n/// @notice 2. Update the need of an existing category pool\n/// @notice 3. Donate ether to an existing category pool\n/// @notice 4. Converts ether to USD using the Chainlink Data Feeds\n/// @notice 5. Obtain the length of the catagory pool list\n/// @notice 6. Obtain the details (id, name, balance, need) of a given category pool\n/// @dev Once the contract is compile and deployed, use the following to run functions from command line\n/// @dev 1. let charity;\n/// @dev 2. CryptoDonater.at(\"0xA8a51239A735a6BA00d20e282d2A56Eae5439191\").then(function(x) { charity = x });\n/// @dev 3. Then run the corresponding command for function of your choice (see @dev for each function below)\n\ncontract CryptoDonater {\n\n  /// @notice Struct to capture ID, Name, Balance, and Need of a Category Pool.\n  struct Category {\n    uint catId;\n    string catName;\n    uint catBalance;\n    uint catNeed;\n  }\n\n  /// @notice Future development\n  // struct Charity {\n  //   string charityName;\n  //   address charityAddress;\n  // }\n\n  /// @notice Future development\n  // struct Donor {\n  //   address donorAddress;\n  //   uint donorValue;\n  // }\n\n  /// @notice Captures the ID that can be assigned to the newly created category pool\n  uint currentCatId;\n\n  /// @notice Future development\n  // Charity[] public charityListings;\n\n  /// @notice Array of type Category to capture category pool list in storage\n  Category[] public catList;\n\n  /// @notice Future development\n  // mapping(address => Charity) public charityList;\n  // mapping(address => Donor) public donorList;\n\n  /// @notice Interface declaration for Chainlink data feeds\n  AggregatorV3Interface internal priceFeed;\n\n  /// @notice Create events to be emitted whenever there are state changes\n  event LogCreateCategory(string message, uint catId, string catName, uint catBalance, uint catNeed);\n  event LogNeedUpdated(string message, uint catId, string catName, uint catBalance, uint catNeed);\n  event LogDonation(string message, uint catId, string catName, uint catBalance, uint catNeed);\n\n  /// @notice Modifier to ensure that _catId is >= 0 and < catList.length\n  modifier catIdValidity(uint _catId) {\n    require(\n      _catId >= 0 && _catId < catList.length,\n      \"Category ID should be >= 0 and < catList.length\"\n    );\n    _;\n  }\n\n  /// @notice Modifier to ensure that _catNeed is greater or equal to 0\n  modifier catNeedValidity(uint _catNeed) {\n    require(\n      _catNeed >= 0,\n      \"Category Need should be >= 0\"\n    );\n    _;\n  }\n\n  /// @notice Modifier to ensure that donation (msg.value) is greater or equal to 0\n  modifier donationValidity() {\n    require(\n      msg.value >= 0,\n      \"Donation (msg.value) should be >= 0\"\n    );\n    _;\n  }\n\n  /// @notice Initializes ID and Chainlink pricefeed\n  constructor() public {\n    currentCatId = catList.length;\n    priceFeed = AggregatorV3Interface(0x9326BFA02ADD2366b30bacB125260Af641031331);\n  }\n\n  /// @notice Get the Ether to USD conversion price from Chainlink data feeds\n  /// @notice Could not get this function to work\n  /// @notice However, I have successfully used web3.js Chainlink data feeds on the front-end\n  /// @dev Use the following from command line to call this function\n  /// @dev charity.getLatestPrice().then(function(x) { return x; });\n  function getLatestPrice() external view returns (int) {\n        (\n            uint80 roundID,\n            int price,\n            uint startedAt,\n            uint timeStamp,\n            uint80 answeredInRound\n        ) = priceFeed.latestRoundData();\n        return price;\n    }\n\n  /// @notice Create a new category pool\n  /// @dev Use the following from command line to call this function\n  /// @dev charity.createCategory(\"Logistics Costs\", 200).then(function(x) { return x; });\n  /// @param 1. Name of the category pool\n  /// @param 2. Need of the category pool\n  /// @return True to indicate success\n  function createCategory(string memory _catName, uint _catNeed)\n    public\n    catNeedValidity(_catNeed)\n    returns(bool)\n  {\n    catList.push(Category({catId: currentCatId, catName: _catName, catBalance: 0, catNeed: _catNeed}));\n    assert(catList[currentCatId].catBalance == 0);\n    emit LogCreateCategory(\n      \"Category Successfully Created\",\n      catList[currentCatId].catId,\n      catList[currentCatId].catName,\n      catList[currentCatId].catBalance,\n      catList[currentCatId].catNeed\n    );\n    currentCatId++;\n    return true;\n  }\n\n  /// @notice Update the need for an existing category pool\n  /// @dev Use the following from command line to call this function\n  /// @dev charity.updateCategoryNeed(1, 200).then(function(x) { return x; });\n  /// @param 1. _catId of the existing category pool\n  /// @param 2. _catNeed to be added to existing category pool\n  /// @return True to indicate success\n  function updateCategoryNeed(uint _catId, uint _catNeed)\n    public\n    catIdValidity(_catId)\n    catNeedValidity(_catNeed)\n    returns(bool)\n  {\n    uint oldCatNeed = catList[_catId].catNeed;\n    catList[_catId].catNeed += _catNeed;\n    assert(catList[_catId].catNeed >= oldCatNeed);\n    emit LogNeedUpdated(\n      \"Category Need Successfully Updated\",\n      catList[_catId].catId,\n      catList[_catId].catName,\n      catList[_catId].catBalance,\n      catList[_catId].catNeed\n    );\n    return true;\n  }\n\n  /// @notice Get the length of the category pool list\n  /// @dev Use the following from command line to call this function\n  /// @dev charity.getCatListLength().then(function(x) { return x; });\n  /// @return Length of category pool list\n  function getCatListLength()\n    public\n    view\n    returns(uint)\n  {\n    return catList.length;\n  }\n\n  /// @notice Send donation to category pool\n  /// @dev Use the following from command line to call this function\n  /// @dev charity.sendDonation(1).then(function(x) { return x; });\n  /// @param catId of the category pool. Txn should also have 'from' and 'value'.\n  /// @return True to indicate success\n  function sendDonation(uint catId)\n    public\n    payable\n    donationValidity()\n    catIdValidity(catId)\n    returns(bool)\n  {\n    /// @notice Increments balance of category pool\n    uint oldCatBalance = catList[catId].catBalance;\n    catList[catId].catBalance+=msg.value;\n    assert(catList[catId].catBalance >= oldCatBalance);\n    /// @notice Decrements need of category pool till it reaches 0\n    uint oldCatNeed = catList[catId].catNeed;\n    if(msg.value > catList[catId].catNeed) catList[catId].catNeed = 0;\n    else catList[catId].catNeed-=msg.value;\n    assert(catList[catId].catNeed >= 0 && catList[catId].catNeed <= oldCatNeed);\n    emit LogNeedUpdated(\n      \"Donation Successful\",\n      catList[catId].catId,\n      catList[catId].catName,\n      catList[catId].catBalance,\n      catList[catId].catNeed\n    );\n    return true;\n  }\n\n  /// @notice Get the details (id, name, balance, need) of the specified category pool\n  /// @dev Use the following from command line to call this function\n  /// @dev charity.getCatValues(2).then(function(x) { return x; });\n  /// @param catId of the existing category pool\n  /// @return 1. Name of the category pool\n  /// @return 2. Balance of the category pool\n  /// @return 3. Need of the category pool\n  function getCatValues(uint catId)\n    public\n    view\n    catIdValidity(catId)\n    returns(string memory, uint, uint)\n  {\n    return (catList[catId].catName, catList[catId].catBalance, catList[catId].catNeed);\n  }\n\n  /// @notice Future Development: Send payabale transaction from smart contract to charity org address.\n  // function sendDonationToCharity(uint catId) public payable returns(uint) { }\n\n}\n",
  "sourcePath": "/Users/knagaraj/Github/Blockchain/blockchain-developer-bootcamp-final-project/contracts/CryptoDonater.sol",
  "compiler": {
    "name": "solc",
    "version": "0.8.10+commit.fc410830.Emscripten.clang"
  },
  "schemaVersion": "3.4.3",
  "updatedAt": "2021-11-28T08:01:23.448Z",
  "devdoc": {
    "author": "Kaushik Nagaraj",
    "details": "Once the contract is compile and deployed, use the following to run functions from command line1. let charity;2. CryptoDonater.at(\"0xA8a51239A735a6BA00d20e282d2A56Eae5439191\").then(function(x) { charity = x });3. Then run the corresponding command for function of your choice (see @dev for each function below)",
    "kind": "dev",
    "methods": {
      "createCategory(string,uint256)": {
        "details": "Use the following from command line to call this functioncharity.createCategory(\"Logistics Costs\", 200).then(function(x) { return x; });",
        "params": {
          "": "2. Need of the category pool"
        },
        "returns": {
          "_0": "True to indicate success"
        }
      },
      "getCatListLength()": {
        "details": "Use the following from command line to call this functioncharity.getCatListLength().then(function(x) { return x; });",
        "returns": {
          "_0": "Length of category pool list"
        }
      },
      "getCatValues(uint256)": {
        "details": "Use the following from command line to call this functioncharity.getCatValues(2).then(function(x) { return x; });",
        "params": {
          "catId": "of the existing category pool"
        },
        "returns": {
          "_0": "1. Name of the category pool",
          "_1": "2. Balance of the category pool",
          "_2": "3. Need of the category pool"
        }
      },
      "getLatestPrice()": {
        "details": "Use the following from command line to call this functioncharity.getLatestPrice().then(function(x) { return x; });"
      },
      "sendDonation(uint256)": {
        "details": "Use the following from command line to call this functioncharity.sendDonation(1).then(function(x) { return x; });",
        "params": {
          "catId": "of the category pool. Txn should also have 'from' and 'value'."
        },
        "returns": {
          "_0": "True to indicate success"
        }
      },
      "updateCategoryNeed(uint256,uint256)": {
        "details": "Use the following from command line to call this functioncharity.updateCategoryNeed(1, 200).then(function(x) { return x; });",
        "params": {
          "": "2. _catNeed to be added to existing category pool"
        },
        "returns": {
          "_0": "True to indicate success"
        }
      }
    },
    "title": "Accepts donations into category pools",
    "version": 1
  },
  "userdoc": {
    "events": {
      "LogCreateCategory(string,uint256,string,uint256,uint256)": {
        "notice": "Create events to be emitted whenever there are state changes"
      }
    },
    "kind": "user",
    "methods": {
      "catList(uint256)": {
        "notice": "Array of type Category to capture category pool list in storage"
      },
      "constructor": {
        "notice": "Initializes ID and Chainlink pricefeed"
      },
      "createCategory(string,uint256)": {
        "notice": "Create a new category pool"
      },
      "getCatListLength()": {
        "notice": "Get the length of the category pool list"
      },
      "getCatValues(uint256)": {
        "notice": "Get the details (id, name, balance, need) of the specified category pool"
      },
      "getLatestPrice()": {
        "notice": "Get the Ether to USD conversion price from Chainlink data feedsCould not get this function to workHowever, I have successfully used web3.js Chainlink data feeds on the front-end"
      },
      "sendDonation(uint256)": {
        "notice": "Send donation to category pool"
      },
      "updateCategoryNeed(uint256,uint256)": {
        "notice": "Update the need for an existing category pool"
      }
    },
    "notice": "Performs the following functions:1. Create a new category pool2. Update the need of an existing category pool3. Donate ether to an existing category pool4. Converts ether to USD using the Chainlink Data Feeds5. Obtain the length of the catagory pool list6. Obtain the details (id, name, balance, need) of a given category pool",
    "version": 1
  }
}