{
  "contractName": "CryptoDonater",
  "abi": [
    {
      "inputs": [],
      "payable": false,
      "stateMutability": "nonpayable",
      "type": "constructor"
    },
    {
      "anonymous": false,
      "inputs": [
        {
          "indexed": false,
          "internalType": "string",
          "name": "name",
          "type": "string"
        },
        {
          "indexed": false,
          "internalType": "address",
          "name": "addr",
          "type": "address"
        }
      ],
      "name": "logCreateCharity",
      "type": "event"
    },
    {
      "anonymous": false,
      "inputs": [
        {
          "indexed": false,
          "internalType": "string",
          "name": "name",
          "type": "string"
        },
        {
          "indexed": false,
          "internalType": "address",
          "name": "addr",
          "type": "address"
        }
      ],
      "name": "logGetCharity",
      "type": "event"
    },
    {
      "constant": true,
      "inputs": [
        {
          "internalType": "uint256",
          "name": "",
          "type": "uint256"
        }
      ],
      "name": "catList",
      "outputs": [
        {
          "internalType": "uint256",
          "name": "catId",
          "type": "uint256"
        },
        {
          "internalType": "string",
          "name": "catName",
          "type": "string"
        },
        {
          "internalType": "uint256",
          "name": "catBalance",
          "type": "uint256"
        },
        {
          "internalType": "uint256",
          "name": "catNeed",
          "type": "uint256"
        }
      ],
      "payable": false,
      "stateMutability": "view",
      "type": "function"
    },
    {
      "constant": true,
      "inputs": [
        {
          "internalType": "address",
          "name": "",
          "type": "address"
        }
      ],
      "name": "charityList",
      "outputs": [
        {
          "internalType": "string",
          "name": "charityName",
          "type": "string"
        },
        {
          "internalType": "address",
          "name": "charityAddress",
          "type": "address"
        }
      ],
      "payable": false,
      "stateMutability": "view",
      "type": "function"
    },
    {
      "constant": true,
      "inputs": [
        {
          "internalType": "uint256",
          "name": "",
          "type": "uint256"
        }
      ],
      "name": "charityListings",
      "outputs": [
        {
          "internalType": "string",
          "name": "charityName",
          "type": "string"
        },
        {
          "internalType": "address",
          "name": "charityAddress",
          "type": "address"
        }
      ],
      "payable": false,
      "stateMutability": "view",
      "type": "function"
    },
    {
      "constant": true,
      "inputs": [
        {
          "internalType": "address",
          "name": "",
          "type": "address"
        }
      ],
      "name": "donorList",
      "outputs": [
        {
          "internalType": "address",
          "name": "donorAddress",
          "type": "address"
        },
        {
          "internalType": "uint256",
          "name": "donorValue",
          "type": "uint256"
        }
      ],
      "payable": false,
      "stateMutability": "view",
      "type": "function"
    },
    {
      "constant": false,
      "inputs": [
        {
          "internalType": "string",
          "name": "_charityName",
          "type": "string"
        },
        {
          "internalType": "address",
          "name": "_charityAddress",
          "type": "address"
        },
        {
          "internalType": "uint256",
          "name": "_charityNeed",
          "type": "uint256"
        }
      ],
      "name": "createCharity",
      "outputs": [
        {
          "internalType": "string",
          "name": "charityName",
          "type": "string"
        },
        {
          "internalType": "address",
          "name": "charityAddress",
          "type": "address"
        }
      ],
      "payable": false,
      "stateMutability": "nonpayable",
      "type": "function"
    },
    {
      "constant": false,
      "inputs": [
        {
          "internalType": "address",
          "name": "_charityAddress",
          "type": "address"
        }
      ],
      "name": "getCharity",
      "outputs": [
        {
          "internalType": "string",
          "name": "charityName",
          "type": "string"
        },
        {
          "internalType": "address",
          "name": "charityAddress",
          "type": "address"
        }
      ],
      "payable": false,
      "stateMutability": "nonpayable",
      "type": "function"
    },
    {
      "constant": false,
      "inputs": [
        {
          "internalType": "string",
          "name": "_catName",
          "type": "string"
        },
        {
          "internalType": "uint256",
          "name": "_catBalance",
          "type": "uint256"
        },
        {
          "internalType": "uint256",
          "name": "_catNeed",
          "type": "uint256"
        }
      ],
      "name": "createCategory",
      "outputs": [
        {
          "internalType": "bool",
          "name": "successful",
          "type": "bool"
        }
      ],
      "payable": false,
      "stateMutability": "nonpayable",
      "type": "function"
    },
    {
      "constant": false,
      "inputs": [],
      "name": "getCatListLenght",
      "outputs": [
        {
          "internalType": "uint256",
          "name": "",
          "type": "uint256"
        }
      ],
      "payable": false,
      "stateMutability": "nonpayable",
      "type": "function"
    },
    {
      "constant": false,
      "inputs": [
        {
          "internalType": "uint256",
          "name": "catId",
          "type": "uint256"
        },
        {
          "internalType": "uint256",
          "name": "catNeed",
          "type": "uint256"
        }
      ],
      "name": "sendDonation",
      "outputs": [
        {
          "internalType": "bool",
          "name": "",
          "type": "bool"
        }
      ],
      "payable": true,
      "stateMutability": "payable",
      "type": "function"
    },
    {
      "constant": false,
      "inputs": [
        {
          "internalType": "uint256",
          "name": "catId",
          "type": "uint256"
        }
      ],
      "name": "getCatValues",
      "outputs": [
        {
          "internalType": "string",
          "name": "",
          "type": "string"
        },
        {
          "internalType": "uint256",
          "name": "",
          "type": "uint256"
        },
        {
          "internalType": "uint256",
          "name": "",
          "type": "uint256"
        }
      ],
      "payable": false,
      "stateMutability": "nonpayable",
      "type": "function"
    },
    {
      "constant": false,
      "inputs": [
        {
          "internalType": "uint256",
          "name": "catId",
          "type": "uint256"
        }
      ],
      "name": "sendCharity",
      "outputs": [
        {
          "internalType": "uint256",
          "name": "",
          "type": "uint256"
        }
      ],
      "payable": true,
      "stateMutability": "payable",
      "type": "function"
    },
    {
      "constant": false,
      "inputs": [
        {
          "internalType": "uint256",
          "name": "catId",
          "type": "uint256"
        }
      ],
      "name": "sendDonationToCharity",
      "outputs": [
        {
          "internalType": "uint256",
          "name": "",
          "type": "uint256"
        }
      ],
      "payable": true,
      "stateMutability": "payable",
      "type": "function"
    }
  ],
  "bytecode": "0x608060405234801561001057600080fd5b506002805490506000819055506116c18061002c6000396000f3fe6080604052600436106100a75760003560e01c80639cc0cdf0116100645780639cc0cdf01461055a5780639f88fb3e1461064e578063c907f5621461069e578063c9d53f0d1461083c578063eae62e661461087e578063fcff7266146108a9576100a7565b80630658557d146100ac5780630e448f65146100ee5780631bf230cd146101d55780632d975f45146102d257806338a88837146103945780638ecd914514610491575b600080fd5b6100d8600480360360208110156100c257600080fd5b8101908080359060200190929190505050610941565b6040518082815260200191505060405180910390f35b3480156100fa57600080fd5b506101276004803603602081101561011157600080fd5b8101908080359060200190929190505050610969565b60405180806020018373ffffffffffffffffffffffffffffffffffffffff1673ffffffffffffffffffffffffffffffffffffffff168152602001828103825284818151815260200191508051906020019080838360005b8381101561019957808201518184015260208101905061017e565b50505050905090810190601f1680156101c65780820380516001836020036101000a031916815260200191505b50935050505060405180910390f35b3480156101e157600080fd5b50610224600480360360208110156101f857600080fd5b81019080803573ffffffffffffffffffffffffffffffffffffffff169060200190929190505050610a52565b60405180806020018373ffffffffffffffffffffffffffffffffffffffff1673ffffffffffffffffffffffffffffffffffffffff168152602001828103825284818151815260200191508051906020019080838360005b8381101561029657808201518184015260208101905061027b565b50505050905090810190601f1680156102c35780820380516001836020036101000a031916815260200191505b50935050505060405180910390f35b3480156102de57600080fd5b5061030b600480360360208110156102f557600080fd5b8101908080359060200190929190505050610d30565b6040518080602001848152602001838152602001828103825285818151815260200191508051906020019080838360005b8381101561035757808201518184015260208101905061033c565b50505050905090810190601f1680156103845780820380516001836020036101000a031916815260200191505b5094505050505060405180910390f35b3480156103a057600080fd5b506103e3600480360360208110156103b757600080fd5b81019080803573ffffffffffffffffffffffffffffffffffffffff169060200190929190505050610e3a565b60405180806020018373ffffffffffffffffffffffffffffffffffffffff1673ffffffffffffffffffffffffffffffffffffffff168152602001828103825284818151815260200191508051906020019080838360005b8381101561045557808201518184015260208101905061043a565b50505050905090810190601f1680156104825780820380516001836020036101000a031916815260200191505b50935050505060405180910390f35b34801561049d57600080fd5b506104ca600480360360208110156104b457600080fd5b8101908080359060200190929190505050610f16565b6040518085815260200180602001848152602001838152602001828103825285818151815260200191508051906020019080838360005b8381101561051c578082015181840152602081019050610501565b50505050905090810190601f1680156105495780820380516001836020036101000a031916815260200191505b509550505050505060405180910390f35b34801561056657600080fd5b506106346004803603606081101561057d57600080fd5b810190808035906020019064010000000081111561059a57600080fd5b8201836020820111156105ac57600080fd5b803590602001918460018302840111640100000000831117156105ce57600080fd5b91908080601f016020809104026020016040519081016040528093929190818152602001838380828437600081840152601f19601f8201169050808301925050505050505091929192908035906020019092919080359060200190929190505050610feb565b604051808215151515815260200191505060405180910390f35b6106846004803603604081101561066457600080fd5b810190808035906020019092919080359060200190929190505050611099565b604051808215151515815260200191505060405180910390f35b3480156106aa57600080fd5b5061078e600480360360608110156106c157600080fd5b81019080803590602001906401000000008111156106de57600080fd5b8201836020820111156106f057600080fd5b8035906020019184600183028401116401000000008311171561071257600080fd5b91908080601f016020809104026020016040519081016040528093929190818152602001838380828437600081840152601f19601f820116905080830192505050505050509192919290803573ffffffffffffffffffffffffffffffffffffffff169060200190929190803590602001909291905050506110fd565b60405180806020018373ffffffffffffffffffffffffffffffffffffffff1673ffffffffffffffffffffffffffffffffffffffff168152602001828103825284818151815260200191508051906020019080838360005b838110156108005780820151818401526020810190506107e5565b50505050905090810190601f16801561082d5780820380516001836020036101000a031916815260200191505b50935050505060405180910390f35b6108686004803603602081101561085257600080fd5b810190808035906020019092919050505061156e565b6040518082815260200191505060405180910390f35b34801561088a57600080fd5b50610893611596565b6040518082815260200191505060405180910390f35b3480156108b557600080fd5b506108f8600480360360208110156108cc57600080fd5b81019080803573ffffffffffffffffffffffffffffffffffffffff1690602001909291905050506115a3565b604051808373ffffffffffffffffffffffffffffffffffffffff1673ffffffffffffffffffffffffffffffffffffffff1681526020018281526020019250505060405180910390f35b60006002828154811061095057fe5b9060005260206000209060040201600201549050919050565b6001818154811061097657fe5b9060005260206000209060020201600091509050806000018054600181600116156101000203166002900480601f016020809104026020016040519081016040528092919081815260200182805460018160011615610100020316600290048015610a225780601f106109f757610100808354040283529160200191610a22565b820191906000526020600020905b815481529060010190602001808311610a0557829003601f168201915b5050505050908060010160009054906101000a900473ffffffffffffffffffffffffffffffffffffffff16905082565b606060007fb6ab070b0d43d0926c59924b70d63b2d2cfdd21b8d747bb3ed300155582ff349600360008573ffffffffffffffffffffffffffffffffffffffff1673ffffffffffffffffffffffffffffffffffffffff168152602001908152602001600020600001600360008673ffffffffffffffffffffffffffffffffffffffff1673ffffffffffffffffffffffffffffffffffffffff16815260200190815260200160002060010160009054906101000a900473ffffffffffffffffffffffffffffffffffffffff1660405180806020018373ffffffffffffffffffffffffffffffffffffffff1673ffffffffffffffffffffffffffffffffffffffff168152602001828103825284818154600181600116156101000203166002900481526020019150805460018160011615610100020316600290048015610bd75780601f10610bac57610100808354040283529160200191610bd7565b820191906000526020600020905b815481529060010190602001808311610bba57829003601f168201915b5050935050505060405180910390a1600360008473ffffffffffffffffffffffffffffffffffffffff1673ffffffffffffffffffffffffffffffffffffffff168152602001908152602001600020600001600360008573ffffffffffffffffffffffffffffffffffffffff1673ffffffffffffffffffffffffffffffffffffffff16815260200190815260200160002060010160009054906101000a900473ffffffffffffffffffffffffffffffffffffffff16818054600181600116156101000203166002900480601f016020809104026020016040519081016040528092919081815260200182805460018160011615610100020316600290048015610d205780601f10610cf557610100808354040283529160200191610d20565b820191906000526020600020905b815481529060010190602001808311610d0357829003601f168201915b5050505050915091509150915091565b606060008060028481548110610d4257fe5b906000526020600020906004020160010160028581548110610d6057fe5b90600052602060002090600402016002015460028681548110610d7f57fe5b906000526020600020906004020160030154828054600181600116156101000203166002900480601f016020809104026020016040519081016040528092919081815260200182805460018160011615610100020316600290048015610e265780601f10610dfb57610100808354040283529160200191610e26565b820191906000526020600020905b815481529060010190602001808311610e0957829003601f168201915b505050505092509250925092509193909250565b6003602052806000526040600020600091509050806000018054600181600116156101000203166002900480601f016020809104026020016040519081016040528092919081815260200182805460018160011615610100020316600290048015610ee65780601f10610ebb57610100808354040283529160200191610ee6565b820191906000526020600020905b815481529060010190602001808311610ec957829003601f168201915b5050505050908060010160009054906101000a900473ffffffffffffffffffffffffffffffffffffffff16905082565b60028181548110610f2357fe5b9060005260206000209060040201600091509050806000015490806001018054600181600116156101000203166002900480601f016020809104026020016040519081016040528092919081815260200182805460018160011615610100020316600290048015610fd55780601f10610faa57610100808354040283529160200191610fd5565b820191906000526020600020905b815481529060010190602001808311610fb857829003601f168201915b5050505050908060020154908060030154905084565b6000600260405180608001604052806000548152602001868152602001600081526020016000815250908060018154018082558091505090600182039060005260206000209060040201600090919290919091506000820151816000015560208201518160010190805190602001906110659291906115e7565b5060408201518160020155606082015181600301555050506000808154809291906001019190505550600190509392505050565b600034600284815481106110a957fe5b90600052602060002090600402016002016000828254019250508190555081600284815481106110d557fe5b9060005260206000209060040201600301600082825401925050819055506001905092915050565b60606000600160405180604001604052808781526020018673ffffffffffffffffffffffffffffffffffffffff168152509080600181540180825580915050906001820390600052602060002090600202016000909192909190915060008201518160000190805190602001906111759291906115e7565b5060208201518160010160006101000a81548173ffffffffffffffffffffffffffffffffffffffff021916908373ffffffffffffffffffffffffffffffffffffffff16021790555050505060405180604001604052808681526020018573ffffffffffffffffffffffffffffffffffffffff16815250600360008673ffffffffffffffffffffffffffffffffffffffff1673ffffffffffffffffffffffffffffffffffffffff16815260200190815260200160002060008201518160000190805190602001906112469291906115e7565b5060208201518160010160006101000a81548173ffffffffffffffffffffffffffffffffffffffff021916908373ffffffffffffffffffffffffffffffffffffffff1602179055509050507f606681bf877477f0e834b0808a45decfae501210db5bce12a3aa3e1c8f603bb9600360008673ffffffffffffffffffffffffffffffffffffffff1673ffffffffffffffffffffffffffffffffffffffff168152602001908152602001600020600001600360008773ffffffffffffffffffffffffffffffffffffffff1673ffffffffffffffffffffffffffffffffffffffff16815260200190815260200160002060010160009054906101000a900473ffffffffffffffffffffffffffffffffffffffff1660405180806020018373ffffffffffffffffffffffffffffffffffffffff1673ffffffffffffffffffffffffffffffffffffffff1681526020018281038252848181546001816001161561010002031660029004815260200191508054600181600116156101000203166002900480156114125780601f106113e757610100808354040283529160200191611412565b820191906000526020600020905b8154815290600101906020018083116113f557829003601f168201915b5050935050505060405180910390a1600360008573ffffffffffffffffffffffffffffffffffffffff1673ffffffffffffffffffffffffffffffffffffffff168152602001908152602001600020600001600360008673ffffffffffffffffffffffffffffffffffffffff1673ffffffffffffffffffffffffffffffffffffffff16815260200190815260200160002060010160009054906101000a900473ffffffffffffffffffffffffffffffffffffffff16818054600181600116156101000203166002900480601f01602080910402602001604051908101604052809291908181526020018280546001816001161561010002031660029004801561155b5780601f106115305761010080835404028352916020019161155b565b820191906000526020600020905b81548152906001019060200180831161153e57829003601f168201915b5050505050915091509150935093915050565b60006002828154811061157d57fe5b9060005260206000209060040201600201549050919050565b6000600280549050905090565b60046020528060005260406000206000915090508060000160009054906101000a900473ffffffffffffffffffffffffffffffffffffffff16908060010154905082565b828054600181600116156101000203166002900490600052602060002090601f016020900481019282601f1061162857805160ff1916838001178555611656565b82800160010185558215611656579182015b8281111561165557825182559160200191906001019061163a565b5b5090506116639190611667565b5090565b61168991905b8082111561168557600081600090555060010161166d565b5090565b9056fea265627a7a7231582094240cbaec4335221dc06fa03def4f131b56c7454dcf1c4242777564b88c613f64736f6c63430005100032",
  "source": "// SPDX-License-Identifier: MIT\npragma solidity >=0.4.22 <0.9.0;\n\ncontract CryptoDonater {\n\n  struct Category {\n    uint catId;\n    string catName;\n    uint catBalance;\n    uint catNeed;\n  }\n\n  struct Charity {\n    string charityName;\n    address charityAddress;\n  }\n\n  struct Donor {\n    address donorAddress;\n    uint donorValue;\n  }\n\n  uint currentCatId;\n\n  Charity[] public charityListings;\n  Category[] public catList;\n\n  mapping(address => Charity) public charityList;\n  mapping(address => Donor) public donorList;\n\n  event logCreateCharity(string name, address addr);\n  event logGetCharity(string name, address addr);\n\n  constructor() public {\n    currentCatId = catList.length;\n  }\n\n  // let charity;\n  // CryptoDonater.at(\"0x0AAa9064D3B5B597a4Ef8Ab5d20f6e00CD5fd177\").then(function(x) { charity = x });\n  // charity.createCharity(\"Fred's Team\", \"0x160dBbe421aC2A88fc4f1dbAE62D7D6357141a16\", 73).then(function(x) { return x; });\n\n  function createCharity(string memory _charityName, address _charityAddress, uint _charityNeed)\n    public\n    returns(string memory charityName, address charityAddress)\n  {\n    charityListings.push(Charity({\n      charityName: _charityName,\n      charityAddress: _charityAddress\n    }));\n    charityList[_charityAddress] = Charity({\n      charityName: _charityName,\n      charityAddress: _charityAddress\n    });\n    emit logCreateCharity(\n      charityList[_charityAddress].charityName,\n      charityList[_charityAddress].charityAddress\n    );\n    return (\n      charityList[_charityAddress].charityName,\n      charityList[_charityAddress].charityAddress\n    );\n  }\n\n  // charity.getCharity(\"0x3F33D19b5E79fD52E387f795d878F4b392683471\").then(function(x) { return x; });\n  function getCharity(address _charityAddress)\n    public\n    returns(string memory charityName, address charityAddress)\n  {\n    emit logGetCharity(\n      charityList[_charityAddress].charityName,\n      charityList[_charityAddress].charityAddress\n    );\n    return (\n      charityList[_charityAddress].charityName,\n      charityList[_charityAddress].charityAddress\n    );\n  }\n\n  // charity.createCategory(\"Logistics Costs\", 2300, 200).then(function(x) { return x; });\n  function createCategory(string memory _catName, uint _catBalance, uint _catNeed)\n    public\n    returns(bool successful)\n  {\n    catList.push(Category({catId: currentCatId, catName: _catName, catBalance: 0, catNeed: 0}));\n    currentCatId++;\n    return true;\n  }\n\n  function getCatListLenght()\n    public\n    returns(uint)\n  {\n    return catList.length;\n  }\n\n  // charity.sendDonation(4, 25).then(function(x) { return x; });\n  function sendDonation(uint catId, uint catNeed)\n    public\n    payable\n    returns(bool)\n  {\n    catList[catId].catBalance+=msg.value;\n    catList[catId].catNeed+=catNeed;\n    return true;\n  }\n\n  function getCatValues(uint catId)\n    public\n    returns(string memory, uint, uint)\n  {\n    return (catList[catId].catName, catList[catId].catBalance, catList[catId].catNeed);\n  }\n\n  function sendCharity(uint catId)\n    public\n    payable\n    returns(uint)\n  {\n    // if(address(this).balance > value) msg.sender.transfer(value);\n    return catList[catId].catBalance;\n  }\n\n\n  function sendDonationToCharity(uint catId)\n    public\n    payable\n    returns(uint)\n  {\n    // if(address(this).balance > value) msg.sender.transfer(value);\n    return catList[catId].catBalance;\n  }\n\n}\n",
  "sourcePath": "/Users/knagaraj/Github/Blockchain/blockchain-developer-bootcamp-final-project/contracts/CryptoDonater.sol",
  "compiler": {
    "name": "solc",
    "version": "0.5.16+commit.9c3226ce.Emscripten.clang"
  },
  "schemaVersion": "3.4.3",
  "updatedAt": "2021-11-26T03:35:52.582Z",
  "networkType": "ethereum",
  "devdoc": {
    "methods": {}
  },
  "userdoc": {
    "methods": {}
  }
}