{
  "contractName": "CryptoDonater",
  "abi": [
    {
      "inputs": [],
      "stateMutability": "nonpayable",
      "type": "constructor"
    },
    {
      "inputs": [
        {
          "internalType": "uint256",
          "name": "",
          "type": "uint256"
        }
      ],
      "name": "catList",
      "outputs": [
        {
          "internalType": "uint256",
          "name": "catId",
          "type": "uint256"
        },
        {
          "internalType": "string",
          "name": "catName",
          "type": "string"
        },
        {
          "internalType": "uint256",
          "name": "catBalance",
          "type": "uint256"
        },
        {
          "internalType": "uint256",
          "name": "catNeed",
          "type": "uint256"
        }
      ],
      "stateMutability": "view",
      "type": "function",
      "constant": true
    },
    {
      "inputs": [],
      "name": "getLatestPrice",
      "outputs": [
        {
          "internalType": "int256",
          "name": "",
          "type": "int256"
        }
      ],
      "stateMutability": "view",
      "type": "function",
      "constant": true
    },
    {
      "inputs": [
        {
          "internalType": "string",
          "name": "_catName",
          "type": "string"
        },
        {
          "internalType": "uint256",
          "name": "_catNeed",
          "type": "uint256"
        }
      ],
      "name": "createCategory",
      "outputs": [
        {
          "internalType": "bool",
          "name": "",
          "type": "bool"
        }
      ],
      "stateMutability": "nonpayable",
      "type": "function"
    },
    {
      "inputs": [
        {
          "internalType": "uint256",
          "name": "_catId",
          "type": "uint256"
        },
        {
          "internalType": "uint256",
          "name": "_catNeed",
          "type": "uint256"
        }
      ],
      "name": "updateCategoryNeed",
      "outputs": [
        {
          "internalType": "bool",
          "name": "",
          "type": "bool"
        }
      ],
      "stateMutability": "nonpayable",
      "type": "function"
    },
    {
      "inputs": [],
      "name": "getCatListLength",
      "outputs": [
        {
          "internalType": "uint256",
          "name": "",
          "type": "uint256"
        }
      ],
      "stateMutability": "view",
      "type": "function",
      "constant": true
    },
    {
      "inputs": [
        {
          "internalType": "uint256",
          "name": "catId",
          "type": "uint256"
        }
      ],
      "name": "sendDonation",
      "outputs": [
        {
          "internalType": "bool",
          "name": "",
          "type": "bool"
        }
      ],
      "stateMutability": "payable",
      "type": "function",
      "payable": true
    },
    {
      "inputs": [
        {
          "internalType": "uint256",
          "name": "catId",
          "type": "uint256"
        }
      ],
      "name": "getCatValues",
      "outputs": [
        {
          "internalType": "string",
          "name": "",
          "type": "string"
        },
        {
          "internalType": "uint256",
          "name": "",
          "type": "uint256"
        },
        {
          "internalType": "uint256",
          "name": "",
          "type": "uint256"
        }
      ],
      "stateMutability": "view",
      "type": "function",
      "constant": true
    }
  ],
  "bytecode": "0x608060405234801561001057600080fd5b50600180549050600081905550739326bfa02add2366b30bacb125260af641031331600260006101000a81548173ffffffffffffffffffffffffffffffffffffffff021916908373ffffffffffffffffffffffffffffffffffffffff160217905550610dc7806100816000396000f3fe6080604052600436106100705760003560e01c8063665588c91161004e578063665588c91461012e5780638e15f4731461015e5780638ecd914514610189578063a1031987146101c957610070565b80632d975f451461007557806330f1081a146100b45780635ff469bd146100f1575b600080fd5b34801561008157600080fd5b5061009c6004803603810190610097919061074c565b6101f4565b6040516100ab93929190610821565b60405180910390f35b3480156100c057600080fd5b506100db60048036038101906100d69190610994565b610303565b6040516100e89190610a0b565b60405180910390f35b3480156100fd57600080fd5b5061011860048036038101906101139190610a26565b6103b2565b6040516101259190610a0b565b60405180910390f35b6101486004803603810190610143919061074c565b6103fa565b6040516101559190610a0b565b60405180910390f35b34801561016a57600080fd5b506101736104db565b6040516101809190610a7f565b60405180910390f35b34801561019557600080fd5b506101b060048036038101906101ab919061074c565b61058a565b6040516101c09493929190610a9a565b60405180910390f35b3480156101d557600080fd5b506101de610652565b6040516101eb9190610ae6565b60405180910390f35b60606000806001848154811061020d5761020c610b01565b5b90600052602060002090600402016001016001858154811061023257610231610b01565b5b9060005260206000209060040201600201546001868154811061025857610257610b01565b5b90600052602060002090600402016003015482805461027690610b5f565b80601f01602080910402602001604051908101604052809291908181526020018280546102a290610b5f565b80156102ef5780601f106102c4576101008083540402835291602001916102ef565b820191906000526020600020905b8154815290600101906020018083116102d257829003601f168201915b505050505092509250925092509193909250565b60006001604051806080016040528060005481526020018581526020016000815260200184815250908060018154018082558091505060019003906000526020600020906004020160009091909190915060008201518160000155602082015181600101908051906020019061037a92919061065f565b50604082015181600201556060820151816003015550506000808154809291906103a390610bc0565b91905055506001905092915050565b600081600184815481106103c9576103c8610b01565b5b906000526020600020906004020160030160008282546103e99190610c09565b925050819055506001905092915050565b6000346001838154811061041157610410610b01565b5b906000526020600020906004020160020160008282546104319190610c09565b925050819055506001828154811061044c5761044b610b01565b5b9060005260206000209060040201600301543411156104955760006001838154811061047b5761047a610b01565b5b9060005260206000209060040201600301819055506104d2565b34600183815481106104aa576104a9610b01565b5b906000526020600020906004020160030160008282546104ca9190610c5f565b925050819055505b60019050919050565b600080600080600080600260009054906101000a900473ffffffffffffffffffffffffffffffffffffffff1673ffffffffffffffffffffffffffffffffffffffff1663feaf968c6040518163ffffffff1660e01b815260040160a060405180830381865afa158015610551573d6000803e3d6000fd5b505050506040513d601f19601f820116820180604052508101906105759190610d16565b94509450945094509450839550505050505090565b6001818154811061059a57600080fd5b90600052602060002090600402016000915090508060000154908060010180546105c390610b5f565b80601f01602080910402602001604051908101604052809291908181526020018280546105ef90610b5f565b801561063c5780601f106106115761010080835404028352916020019161063c565b820191906000526020600020905b81548152906001019060200180831161061f57829003601f168201915b5050505050908060020154908060030154905084565b6000600180549050905090565b82805461066b90610b5f565b90600052602060002090601f01602090048101928261068d57600085556106d4565b82601f106106a657805160ff19168380011785556106d4565b828001600101855582156106d4579182015b828111156106d35782518255916020019190600101906106b8565b5b5090506106e191906106e5565b5090565b5b808211156106fe5760008160009055506001016106e6565b5090565b6000604051905090565b600080fd5b600080fd5b6000819050919050565b61072981610716565b811461073457600080fd5b50565b60008135905061074681610720565b92915050565b6000602082840312156107625761076161070c565b5b600061077084828501610737565b91505092915050565b600081519050919050565b600082825260208201905092915050565b60005b838110156107b3578082015181840152602081019050610798565b838111156107c2576000848401525b50505050565b6000601f19601f8301169050919050565b60006107e482610779565b6107ee8185610784565b93506107fe818560208601610795565b610807816107c8565b840191505092915050565b61081b81610716565b82525050565b6000606082019050818103600083015261083b81866107d9565b905061084a6020830185610812565b6108576040830184610812565b949350505050565b600080fd5b600080fd5b7f4e487b7100000000000000000000000000000000000000000000000000000000600052604160045260246000fd5b6108a1826107c8565b810181811067ffffffffffffffff821117156108c0576108bf610869565b5b80604052505050565b60006108d3610702565b90506108df8282610898565b919050565b600067ffffffffffffffff8211156108ff576108fe610869565b5b610908826107c8565b9050602081019050919050565b82818337600083830152505050565b6000610937610932846108e4565b6108c9565b90508281526020810184848401111561095357610952610864565b5b61095e848285610915565b509392505050565b600082601f83011261097b5761097a61085f565b5b813561098b848260208601610924565b91505092915050565b600080604083850312156109ab576109aa61070c565b5b600083013567ffffffffffffffff8111156109c9576109c8610711565b5b6109d585828601610966565b92505060206109e685828601610737565b9150509250929050565b60008115159050919050565b610a05816109f0565b82525050565b6000602082019050610a2060008301846109fc565b92915050565b60008060408385031215610a3d57610a3c61070c565b5b6000610a4b85828601610737565b9250506020610a5c85828601610737565b9150509250929050565b6000819050919050565b610a7981610a66565b82525050565b6000602082019050610a946000830184610a70565b92915050565b6000608082019050610aaf6000830187610812565b8181036020830152610ac181866107d9565b9050610ad06040830185610812565b610add6060830184610812565b95945050505050565b6000602082019050610afb6000830184610812565b92915050565b7f4e487b7100000000000000000000000000000000000000000000000000000000600052603260045260246000fd5b7f4e487b7100000000000000000000000000000000000000000000000000000000600052602260045260246000fd5b60006002820490506001821680610b7757607f821691505b60208210811415610b8b57610b8a610b30565b5b50919050565b7f4e487b7100000000000000000000000000000000000000000000000000000000600052601160045260246000fd5b6000610bcb82610716565b91507fffffffffffffffffffffffffffffffffffffffffffffffffffffffffffffffff821415610bfe57610bfd610b91565b5b600182019050919050565b6000610c1482610716565b9150610c1f83610716565b9250827fffffffffffffffffffffffffffffffffffffffffffffffffffffffffffffffff03821115610c5457610c53610b91565b5b828201905092915050565b6000610c6a82610716565b9150610c7583610716565b925082821015610c8857610c87610b91565b5b828203905092915050565b600069ffffffffffffffffffff82169050919050565b610cb281610c93565b8114610cbd57600080fd5b50565b600081519050610ccf81610ca9565b92915050565b610cde81610a66565b8114610ce957600080fd5b50565b600081519050610cfb81610cd5565b92915050565b600081519050610d1081610720565b92915050565b600080600080600060a08688031215610d3257610d3161070c565b5b6000610d4088828901610cc0565b9550506020610d5188828901610cec565b9450506040610d6288828901610d01565b9350506060610d7388828901610d01565b9250506080610d8488828901610cc0565b915050929550929590935056fea26469706673582212208db11f7eb3506fba3d4d6219ab1072c903cdd01fd5de96d74f3d90006dc3fc1764736f6c634300080a0033",
  "immutableReferences": {},
  "source": "// SPDX-License-Identifier: MIT\npragma solidity ^0.8.0;\nimport \"@chainlink/contracts/src/v0.8/interfaces/AggregatorV3Interface.sol\";\n\n/// @title Accepts donations into category pools\n/// @author Kaushik Nagaraj\n/// @notice Performs the following functions:\n/// @notice 1. Create a new category pool\n/// @notice 2. Update the need of an existing category pool\n/// @notice 3. Donate ether to an existing category pool\n/// @notice 4. Converts ether to USD using the Chainlink Data Feeds\n/// @notice 5. Obtain the length of the catagory pool list\n/// @notice 6. Obtain the details (id, name, balance, need) of a given category pool\n/// @dev Once the contract is compile and deployed, use the following to run functions from command line\n/// @dev 1. let charity;\n/// @dev 2. CryptoDonater.at(\"<Deployed Contract Address\").then(function(x) { charity = x });\n/// @dev 3. Then run the corresponding command for function of your choice (see @dev for each function below)\n\ncontract CryptoDonater {\n\n  /// @notice Struct to capture ID, Name, Balance, and Need of a Category Pool.\n  struct Category {\n    uint catId;\n    string catName;\n    uint catBalance;\n    uint catNeed;\n  }\n\n  /// @notice Future development\n  // struct Charity {\n  //   string charityName;\n  //   address charityAddress;\n  // }\n\n  /// @notice Future development\n  // struct Donor {\n  //   address donorAddress;\n  //   uint donorValue;\n  // }\n\n  /// @notice Captures the ID that can be assigned to the newly created category pool\n  uint currentCatId;\n\n  /// @notice Future development\n  // Charity[] public charityListings;\n\n  /// @notice Array of type Category to capture category pool list in storage\n  Category[] public catList;\n\n  /// @notice Future development\n  // mapping(address => Charity) public charityList;\n  // mapping(address => Donor) public donorList;\n\n  /// @notice Interface declaration for Chainlink data feeds\n  AggregatorV3Interface internal priceFeed;\n\n  /// @notice Initializes ID and Chainlink pricefeed\n  constructor() public {\n    currentCatId = catList.length;\n    priceFeed = AggregatorV3Interface(0x9326BFA02ADD2366b30bacB125260Af641031331);\n  }\n\n  /// @notice Get the Ether to USD conversion price from Chainlink data feeds\n  /// @notice Could not get this function to work\n  /// @notice So I have used Chainlink data feeds from Web3.js on the front-end\n  /// @dev Use the following from command line to call this function\n  /// @dev charity.getLatestPrice().then(function(x) { return x; });\n  function getLatestPrice() public view returns (int) {\n        (\n            uint80 roundID,\n            int price,\n            uint startedAt,\n            uint timeStamp,\n            uint80 answeredInRound\n        ) = priceFeed.latestRoundData();\n        return price;\n    }\n\n  /// @notice Create a new category pool\n  /// @dev Use the following from command line to call this function\n  /// @dev charity.createCategory(\"Logistics Costs\", 200).then(function(x) { return x; });\n  /// @param 1. Name of the category pool\n  /// @param 2. Need of the category pool\n  /// @return True to indicate success\n  function createCategory(string memory _catName, uint _catNeed)\n    public\n    returns(bool)\n  {\n    catList.push(Category({catId: currentCatId, catName: _catName, catBalance: 0, catNeed: _catNeed}));\n    currentCatId++;\n    return true;\n  }\n\n  /// @notice Update the need for an existing category pool\n  /// @dev Use the following from command line to call this function\n  /// @dev charity.updateCategoryNeed(1, 200).then(function(x) { return x; });\n  /// @param 1. _catId of the existing category pool\n  /// @param 2. _catNeed to be added to existing category pool\n  /// @return True to indicate success\n  function updateCategoryNeed(uint _catId, uint _catNeed)\n    public\n    returns(bool)\n  {\n    catList[_catId].catNeed += _catNeed;\n    return true;\n  }\n\n  /// @notice Get the length of the category pool list\n  /// @dev Use the following from command line to call this function\n  /// @dev charity.getCatListLength().then(function(x) { return x; });\n  /// @return Length of category pool list\n  function getCatListLength()\n    public\n    view\n    returns(uint)\n  {\n    return catList.length;\n  }\n\n  /// @notice Send donation to category pool\n  /// @dev Use the following from command line to call this function\n  /// @dev charity.sendDonation(4).then(function(x) { return x; });\n  /// @param catId of the category pool. Txn should also have 'from' and 'value'.\n  /// @return True to indicate success\n  function sendDonation(uint catId)\n    public\n    payable\n    returns(bool)\n  {\n    /// @notice Increments balance of category pool\n    catList[catId].catBalance+=msg.value;\n    /// @notice Decrements need of category pool till it reaches 0\n    if(msg.value > catList[catId].catNeed) catList[catId].catNeed = 0;\n    else catList[catId].catNeed-=msg.value;\n    return true;\n  }\n\n  /// @notice Get the details (id, name, balance, need) of the specified category pool\n  /// @dev Use the following from command line to call this function\n  /// @dev charity.getCatValues(2).then(function(x) { return x; });\n  /// @param catId of the existing category pool\n  /// @return 1. Name of the category pool\n  /// @return 2. Balance of the category pool\n  /// @return 3. Need of the category pool\n  function getCatValues(uint catId)\n    public\n    view\n    returns(string memory, uint, uint)\n  {\n    return (catList[catId].catName, catList[catId].catBalance, catList[catId].catNeed);\n  }\n\n  /// @notice Future Development: Send payabale transaction from smart contract to charity org address.\n  // function sendDonationToCharity(uint catId) public payable returns(uint) { }\n\n}\n",
  "sourcePath": "/Users/knagaraj/Github/Blockchain/blockchain-developer-bootcamp-final-project/contracts/CryptoDonater.sol",
  "compiler": {
    "name": "solc",
    "version": "0.8.10+commit.fc410830.Emscripten.clang"
  },
  "schemaVersion": "3.4.3",
  "updatedAt": "2021-11-27T16:36:02.048Z",
  "networkType": "ethereum",
  "devdoc": {
    "author": "Kaushik Nagaraj",
    "details": "Once the contract is compile and deployed, use the following to run functions from command line1. let charity;2. CryptoDonater.at(\"<Deployed Contract Address\").then(function(x) { charity = x });3. Then run the corresponding command for function of your choice (see @dev for each function below)",
    "kind": "dev",
    "methods": {
      "createCategory(string,uint256)": {
        "details": "Use the following from command line to call this functioncharity.createCategory(\"Logistics Costs\", 200).then(function(x) { return x; });",
        "params": {
          "": "2. Need of the category pool"
        },
        "returns": {
          "_0": "True to indicate success"
        }
      },
      "getCatListLength()": {
        "details": "Use the following from command line to call this functioncharity.getCatListLength().then(function(x) { return x; });",
        "returns": {
          "_0": "Length of category pool list"
        }
      },
      "getCatValues(uint256)": {
        "details": "Use the following from command line to call this functioncharity.getCatValues(2).then(function(x) { return x; });",
        "params": {
          "catId": "of the existing category pool"
        },
        "returns": {
          "_0": "1. Name of the category pool",
          "_1": "2. Balance of the category pool",
          "_2": "3. Need of the category pool"
        }
      },
      "getLatestPrice()": {
        "details": "Use the following from command line to call this functioncharity.getLatestPrice().then(function(x) { return x; });"
      },
      "sendDonation(uint256)": {
        "details": "Use the following from command line to call this functioncharity.sendDonation(4).then(function(x) { return x; });",
        "params": {
          "catId": "of the category pool. Txn should also have 'from' and 'value'."
        },
        "returns": {
          "_0": "True to indicate success"
        }
      },
      "updateCategoryNeed(uint256,uint256)": {
        "details": "Use the following from command line to call this functioncharity.updateCategoryNeed(1, 200).then(function(x) { return x; });",
        "params": {
          "": "2. _catNeed to be added to existing category pool"
        },
        "returns": {
          "_0": "True to indicate success"
        }
      }
    },
    "title": "Accepts donations into category pools",
    "version": 1
  },
  "userdoc": {
    "kind": "user",
    "methods": {
      "catList(uint256)": {
        "notice": "Array of type Category to capture category pool list in storage"
      },
      "constructor": {
        "notice": "Initializes ID and Chainlink pricefeed"
      },
      "createCategory(string,uint256)": {
        "notice": "Create a new category pool"
      },
      "getCatListLength()": {
        "notice": "Get the length of the category pool list"
      },
      "getCatValues(uint256)": {
        "notice": "Get the details (id, name, balance, need) of the specified category pool"
      },
      "getLatestPrice()": {
        "notice": "Get the Ether to USD conversion price from Chainlink data feedsCould not get this function to workSo I have used Chainlink data feeds from Web3.js on the front-end"
      },
      "sendDonation(uint256)": {
        "notice": "Send donation to category pool"
      },
      "updateCategoryNeed(uint256,uint256)": {
        "notice": "Update the need for an existing category pool"
      }
    },
    "notice": "Performs the following functions:1. Create a new category pool2. Update the need of an existing category pool3. Donate ether to an existing category pool4. Converts ether to USD using the Chainlink Data Feeds5. Obtain the length of the catagory pool list6. Obtain the details (id, name, balance, need) of a given category pool",
    "version": 1
  }
}